:020000040800F2
:10000000002800205D140008451100084B1100086D
:1000100051110008571100085D1100080000000090
:100020000000000000000000000000006311000854
:100030006F110008000000007B1100088711000804
:10004000A5140008A5140008A5140008A5140008AC
:10005000A5140008A5140008A5140008A51400089C
:10006000A5140008A5140008A5140008A51400088C
:10007000A5140008A5140008A5140008A51400087C
:10008000A5140008A5140008A5140008A51400086C
:10009000A5140008A5140008A5140008A51400085C
:1000A000A5140008A5140008A5140008A51400084C
:1000B00095110008A514000800000000A514000810
:1000C000A51400080000000000000000A5140008AE
:1000D00000000000A5140008A5140008000000009E
:1000E000A5140008A5140008A514000800000000CD
:1000F0000000000000000000000000000000000000
:0C01000000000000000000005FF808F1A3
:10010C0010B5054C237833B9044B13B10448AFF345
:10011C0000800123237010BDBC00002000000000F3
:10012C00D42A000808B5034B1BB103490348AFF3AD
:10013C00008008BD00000000C0000020D42A000888
:10014C0080B584B000AF78607B68002B1EDB7B68C9
:10015C00092B1BDC0023FB6014E00122FB6802FA74
:10016C0003F399B217487A681346DB009B1AC2183E
:10017C00FB6813441B781A46134801F090FCFB688B
:10018C000133FB60FB68062BE7DD17E00023BB6047
:10019C0010E00122BB6802FA03F399B2094ABB686A
:1001AC00134446331B781A46074801F078FCBB68A9
:1001BC000133BB60BB68062BEBDD00BF00BF103703
:1001CC00BD4680BD00000020000C014080B584B00D
:1001DC0000AF78607B68002B1EDB7B68092B1BDC77
:1001EC000023FB6014E08022FB6802FA03F399B24F
:1001FC0017487A681346DB009B1AC218FB68134435
:10020C001B781A46134801F04AFCFB680133FB606B
:10021C00FB68062BE7DD17E00023BB6010E08022B3
:10022C00BB6802FA03F399B2094ABB68134446331C
:10023C001B781A46074801F032FCBB680133BB60DF
:10024C00BB68062BEBDD00BF00BF1037BD4680BD81
:10025C0000000020000C014080B582B000AF786037
:10026C007B68002B03F00103B8BF5B427B607B68AB
:10027C00002B03D07B68012B22D043E0002280218D
:10028C00224801F00CFC01224FF480711F4801F050
:10029C0006FC00224FF400711C4801F000FC012206
:1002AC004FF48061194801F0FAFB194B1B68184692
:1002BC00FFF746FF164B9B681846FFF787FF21E0B8
:1002CC0001228021114801F0EAFB00224FF48071D9
:1002DC000E4801F0E4FB01224FF400710B4801F0D1
:1002EC00DEFB00224FF48061084801F0D8FB084B7C
:1002FC005B681846FFF724FF054BDB681846FFF7D1
:10030C0065FF00BF00BF0837BD4680BD0008014037
:10031C00D800002080B483B000AF786039607B686F
:10032C00184A82FB03129210DB17D31A164A136079
:10033C007968144B83FB01239A10CB17D21A1346FE
:10034C009B0013445B00CA1A0F4B5A603B680D4A62
:10035C0082FB03129210DB17D31A0B4A9360396895
:10036C00084B83FB01239A10CB17D21A13469B0020
:10037C0013445B00CA1A044BDA6000BF0C37BD464D
:10038C0080BC704767666666D800002080B483B076
:10039C0000AF7860094A7B6852F82330012B06D1F4
:1003AC00064A7B68002142F82310012300E0002359
:1003BC0018460C37BD4680BC704700BFE8000020D3
:1003CC0080B582B000AF00237B6078E0404A7B6848
:1003DC0052F823203F497B6841F823203E4A7B6832
:1003EC0052F823203A497B6841F823204FF40062ED
:1003FC007B6802FA03F39BB21946384801F038FBCC
:10040C0003461946344A7B6842F82310304A7B680D
:10041C0052F8232030497B6851F823309A424BD153
:10042C002B4A7B6852F823202A497B6851F82330E9
:10043C009A4241D1274A7B6852F8232028497B688D
:10044C0051F823309A4218D0224A7B6852F8232064
:10045C0023497B6841F823201F4A7B6852F82330DC
:10046C00002B29D11F4A7B68642142F823101E4AB5
:10047C007B68012142F823101EE01A4A7B6852F86F
:10048C0023305A1E17497B6841F82320154A7B6894
:10049C0052F82330002B0FD1124A7B680A2142F804
:1004AC0023100F4A7B6852F82330002B04D10E4ADC
:1004BC007B68012142F823107B6801337B607B68E9
:1004CC00022B83DD00BF00BF0837BD4680BD00BFD7
:1004DC0068000020740000205C000020000801402F
:1004EC008000002050000020E800002080B500AF04
:1004FC00044B1B68044A126811461846FFF70AFFA2
:10050C0000BF80BDF4000020F800002080B500AFD3
:10051C0000F048F800F044F900F0F0F900BF80BD9D
:10052C0080B500AF0020FFF731FF0346012B2CD123
:10053C004FF0FF3000F0C4FE144B00221A60144B35
:10054C0000221A604FF0FF314FF0FF30FFF7E2FE50
:10055C00104B00221A604FF0FF3000F08BFB4FF075
:10056C00FF3000F005FC0C4B4FF0FF321A600B4BC8
:10057C004FF0FF321A600A4B0A221A60642000F016
:10058C0013FE642000F048FE00BF80BDF400002084
:10059C00F8000020FC0000208C00002090000020BF
:1005AC009400002080B500AF744B1B68212B64D0E5
:1005BC00212B00F3E080162B00F09E80162B00F30D
:1005CC00DA80012B02D00B2B18D0D4E06C4B1B68BB
:1005DC004FF47A7202FB03F3184600F0E5FD4FF47A
:1005EC007A7000F0FDFD642000F016FE644B1B6871
:1005FC00644A1360614B0B221A60BDE00B2000F0C3
:10060C0039FB614B1B68012B08D15E4B1B68013B0E
:10061C005C4A13604FF47A7000F0E2FD5B4B1B6890
:10062C00012B0FD15A4B1B684FF47A7202FB03F368
:10063C00184600F0B9FD564B1B68524A13604F4BDD
:10064C0021221A60534B1B68012B13D1FFF74EFF6D
:10065C00514B1B68012B14BF01230023DBB21A463C
:10066C004D4B1A604C4B1B681846FFF7F5FD642088
:10067C0000F0D2FDFFF754FF7EE0212000F0FAFAE3
:10068C00414B1B68012B08D13E4B1B68013B3D4A7B
:10069C0013604FF47A7000F0A3FD3C4B1B68012BE8
:1006AC000FD13E4B1B684FF47A7202FB03F31846D2
:1006BC0000F07AFD394B1B68324A13602F4B16221F
:1006CC001A60344B1B68012B13D1FFF70FFF324B11
:1006DC001B68012B14BF01230023DBB21A462E4BDF
:1006EC001A602D4B1B681846FFF7B6FD642000F00E
:1006FC0093FDFFF715FF3FE0162000F0BBFA224BED
:10070C001B68012B08D11F4B1B68013B1D4A136052
:10071C004FF47A7000F064FD1C4B1B68012B0FD159
:10072C00174B1B684FF47A7202FB03F3184600F068
:10073C003BFD134B1B68134A1360104B0B221A60C2
:10074C00144B1B68012B13D1FFF7D0FE124B1B6807
:10075C00012B14BF01230023DBB21A460E4B1A6087
:10076C000D4B1B681846FFF777FD642000F054FD15
:10077C00FFF7D6FE00E000BF00BF80BD8C0000205C
:10078C0098000020F4000020200100201C01002013
:10079C00A000002024010020FC0000209C00002070
:1007AC0080B500AF4E4B1B68212B21D0212B00F3C1
:1007BC008E80162B41D0162B00F38980012B02D092
:1007CC000B2B5FD083E0474B1B684FF47A7202FB14
:1007DC0003F3184600F03CFD4FF47A7000F054FD22
:1007EC00404B1B68404A13603D4B21221A6075E058
:1007FC00212000F0BDFA3D4B1B68012B08D13A4B70
:10080C001B68013B384A13604FF47A7000F03CFDD2
:10081C00374B1B68012B5CD1364B1B684FF47A723B
:10082C0002FB03F3184600F013FD324B1B682E4AF3
:10083C0013602B4B16221A604BE0162000F098FA2E
:10084C002A4B1B68012B08D1274B1B68013B264AFE
:10085C0013604FF47A7000F017FD254B1B68012BC9
:10086C0039D1254B1B684FF47A7202FB03F31846FF
:10087C0000F0EEFC204B1B681B4A1360184B0B223C
:10088C001A6028E00B2000F073FA184B1B68012B40
:10089C0008D1154B1B68013B134A13604FF47A7057
:1008AC0000F0F2FC124B1B68012B16D10D4B1B6890
:1008BC004FF47A7202FB03F3184600F0C9FC094BA3
:1008CC001B68094A1360064B21221A6005E000BF21
:1008DC0004E000BF02E000BF00E000BF00BF80BD2D
:1008EC0090000020A0000020F80000202C01002027
:1008FC00280100209C0000209800002080B500AF4B
:10090C00B84B1B680A3B1E2B00F2A28101A252F8C5
:10091C0023F000BF9D0900085D0C00085D0C000869
:10092C005D0C00085D0C00085D0C00085D0C0008F7
:10093C005D0C00085D0C00085D0C0008610A0008E5
:10094C005D0C00085D0C00085D0C00085D0C0008D7
:10095C005D0C00085D0C00085D0C00085D0C0008C7
:10096C005D0C0008250B00085D0C00085D0C0008F0
:10097C005D0C00085D0C00085D0C00085D0C0008A7
:10098C005D0C00085D0C00085D0C00081D0C0008D7
:10099C00954B1B6801211846FFF7BCFC0020FFF7A4
:1009AC00F5FC0346012B13D18F4B01221A608D4BA2
:1009BC0014221A604FF0FF3000F0DAF94FF0FF30DC
:1009CC0000F058F9642000F0EFFB642000F024FCE8
:1009DC000120FFF7DBFC0346012B0AD1824B1B687D
:1009EC00632B03D0804B1B68013300E001237E4A4C
:1009FC0013600220FFF7CAFC0346012B03D17A4B8C
:100A0C001B687A4A13607A4B1B68012B0AD10221AE
:100A1C00784801F05CF81021764801F058F8FA207B
:100A2C0000F0C2FB744B1B68012B40F01381734B1D
:100A3C001B680133002B03F00103B8BF5B426F4A04
:100A4C0013606E4B1B681846FFF706FC642000F021
:100A5C00E3FBFFE06A4B1B6802211846FFF75AFCC8
:100A6C000020FFF793FC0346012B13D1644B0122AA
:100A7C001A605C4B1E221A604FF0FF3000F078F9C0
:100A8C004FF0FF3000F0F6F8642000F08DFB64208E
:100A9C0000F0C2FB0120FFF779FC0346012B0AD1C1
:100AAC00574B1B68632B03D0554B1B68013300E07D
:100ABC000123534A13600220FFF768FC0346012B05
:100ACC0003D14F4B1B684F4A1360494B1B68012BDA
:100ADC000AD10421474800F0FAFF2021454800F0D4
:100AEC00F6FFFA2000F060FB434B1B68012B40F033
:100AFC00B380424B1B680133002B03F00103B8BFDA
:100B0C005B423E4A13603D4B1B681846FFF7A4FB43
:100B1C00642000F081FB9FE03B4B1B6803211846CF
:100B2C00FFF7F8FB0120FFF731FC0346012B0AD13C
:100B3C00354B1B68632B03D0334B1B68013300E030
:100B4C000123314A13600220FFF720FC0346012BDE
:100B5C0003D12D4B1B682D4A13600020FFF716FCA8
:100B6C000346012B18D1294B1A68264B1B681344DA
:100B7C001E4A13602C2000F07DF82C2000F0F8F8B1
:100B8C0058215820FFF7C6FB4FF4FA7000F00CFB0D
:100B9C00144B28221A6064E0154B1B68012B0AD1F8
:100BAC000821144800F093FF4021124800F08FFFF9
:100BBC00FA2000F0F9FA104B1B68012B4ED10F4BA9
:100BCC001B680133002B03F00103B8BF5B420B4AD7
:100BDC0013600A4B1B681846FFF73EFB642000F0BD
:100BEC001BFB3BE094000020A40000209800002098
:100BFC001C0100200008014024010020FC00002002
:100C0C00A80000209C000020AC000020A0000020C8
:100C1C00144B1B68012B23D14FF0FF3000F0A8F8C8
:100C2C004FF0FF3000F026F84FF0FF314FF0FF305F
:100C3C00FFF770FB002000F043FB0B4B4FF0FF3233
:100C4C001A600A4B01221A60094B01221A6007E054
:100C5C0000BF06E000BF04E000BF02E000BF00E000
:100C6C0000BF80BD1C010020940000208C000020DF
:100C7C009000002080B582B000AF78607B682C2B90
:100C8C0048D07B682C2B58DC7B68212B2FD07B68C1
:100C9C00212B52DC7B680B2B03D07B68162B13D0DB
:100CAC004BE000220221304800F0F9FE0122042121
:100CBC002D4800F0F4FE012208212B4800F0EFFE35
:100CCC002A4B0B221A604BE001220221264800F02D
:100CDC00E6FE00220421244800F0E1FE0122082156
:100CEC00214800F0DCFE214B16221A6038E001226C
:100CFC0002211D4800F0D3FE012204211A4800F005
:100D0C00CEFE00220821184800F0C9FE174B212204
:100D1C001A6025E000220221134800F0C0FE0022D8
:100D2C000421114800F0BBFE002208210E4800F0FF
:100D3C00B6FE0E4B2C221A6012E0012202210A4848
:100D4C0000F0ADFE01220421074800F0A8FE0122AC
:100D5C000821054800F0A3FE044B00221A6000BFD6
:100D6C0000BF0837BD4680BD0008014000010020CF
:100D7C0080B582B000AF78607B682C2B48D07B6844
:100D8C002C2B58DC7B68212B2FD07B68212B52DC41
:100D9C007B680B2B03D07B68162B13D04BE0002207
:100DAC001021304800F07BFE012220212D4800F05C
:100DBC0076FE012240212B4800F071FE2A4B0B22BB
:100DCC001A604BE001221021264800F068FE002238
:100DDC002021244800F063FE01224021214800F02C
:100DEC005EFE214B16221A6038E0012210211D48AC
:100DFC0000F055FE012220211A4800F050FE00227E
:100E0C004021184800F04BFE174B21221A6025E0B8
:100E1C0000221021134800F042FE0022202111482C
:100E2C0000F03DFE002240210E4800F038FE0E4B33
:100E3C002C221A6012E0012210210A4800F02FFE29
:100E4C0001222021074800F02AFE012240210548FA
:100E5C0000F025FE044B00221A6000BF00BF0837CB
:100E6C00BD4680BD000801400401002080B582B061
:100E7C0000AF7860FFF7A4FA00F094FA00BF0837CF
:100E8C00BD4680BD80B500AF00F008FB00F00CF84B
:100E9C0000F092F800F044F8024801F05DFAFFF718
:100EAC0035FBFCE73001002080B590B000AF07F1B6
:100EBC00180328220021184601F0FEFD3B1D0022DC
:100ECC001A605A609A60DA601A610223BB610123CE
:100EDC00BB621023FB6200237B6307F118031846E7
:100EEC0000F00EFE0346002B01D000F0C9F80F23D2
:100EFC007B600023BB600023FB6000233B6100236D
:100F0C007B613B1D0021184601F07AF80346002B4B
:100F1C0001D000F0B5F800BF4037BD4680BD0000E1
:100F2C0080B586B000AF07F1080300221A605A6042
:100F3C009A60DA603B4600221A605A601D4B4FF0F3
:100F4C0080421A601B4B41F63F725A60194B0022CB
:100F5C009A60184B0922DA60164B00221A61154B65
:100F6C0000229A61134801F0A7F90346002B01D027
:100F7C0000F086F84FF48053BB6007F10803194664
:100F8C000C4801F025FB0346002B01D000F078F84B
:100F9C0000233B6000237B603B461946054801F06B
:100FAC00FDFC0346002B01D000F06AF800BF183797
:100FBC00BD4680BD3001002080B586B000AF07F182
:100FCC00080300221A605A609A60DA60294B9B6908
:100FDC00284A43F004039361264B9B6903F00403F6
:100FEC007B607B68234B9B69224A43F00803936127
:100FFC00204B9B6903F008033B603B68002240F2E6
:10100C00FE711D4800F04BFD002243F6FF711B489A
:10101C0000F045FD40F2FE73BB600123FB60002332
:10102C003B6102237B6107F108031946124800F06B
:10103C00A5FB43F6FF73BB600123FB6000233B6100
:10104C0002237B6107F1080319460C4800F096FB5C
:10105C004FF46053BB600023FB6001233B6107F13D
:10106C0008031946044800F089FB00BF1837BD4639
:10107C0080BD00BF0010024000080140000C014080
:10108C0080B400AF72B600BFFEE7000080B485B03C
:10109C0000AF154B9B69144A43F001039361124B4B
:1010AC009B6903F00103BB60BB680F4BDB690E4A05
:1010BC0043F08053D3610C4BDB6903F080537B60AE
:1010CC007B680A4B5B68FB60FB6823F0E063FB60AA
:1010DC00FB6843F08063FB60044AFB68536000BF0D
:1010EC001437BD4680BC7047001002400000014020
:1010FC0080B584B000AF78607B681B68B3F1804F1B
:10110C0013D10C4BDB690B4A43F00103D361094B40
:10111C00DB6903F00103FB60FB68002200211C204B
:10112C0000F0F5FA1C2000F00EFB00BF1037BD4696
:10113C0080BD00BF0010024080B400AFFEE780B459
:10114C0000AFFEE780B400AFFEE780B400AFFEE76F
:10115C0080B400AFFEE780B400AF00BFBD4680BCDA
:10116C00704780B400AF00BFBD4680BC704780B4F0
:10117C0000AF00BFBD4680BC704780B500AF00F02B
:10118C00D3F900BF80BD000080B500AF024801F06C
:10119C002FF900BF80BD00BF3001002080B400AF2C
:1011AC0000BFBD4680BC704780B483B000AF786090
:1011BC007B68084A82FB03129210DB17D31A064A8B
:1011CC001360064B00221A6000BF0C37BD4680BC72
:1011DC00704700BF67666666080100201C0100208E
:1011EC0080B483B000AF78607B68084A82FB03123E
:1011FC009210DB17D31A064A1360064B00221A60B2
:10120C0000BF0C37BD4680BC704700BF6766666682
:10121C000C0100202001002080B483B000AF786066
:10122C007B68084A82FB03129210DB17D31A064A1A
:10123C001360064B00221A6000BF0C37BD4680BC01
:10124C00704700BF6766666610010020240100200D
:10125C0080B483B000AF78607B68084A82FB0312CD
:10126C009210DB17D31A064A1360064B00221A6041
:10127C0000BF0C37BD4680BC704700BF6766666612
:10128C00140100202801002080B483B000AF7860E6
:10129C007B68084A82FB03129210DB17D31A064AAA
:1012AC001360064B00221A6000BF0C37BD4680BC91
:1012BC00704700BF67666666180100202C0100208D
:1012CC0080B483B000AF78607B68013B042B30D8CE
:1012DC0001A252F823F000BFF9120008071300080E
:1012EC00151300082313000831130008234B0022A8
:1012FC001A60234B00221A603AE0224B00221A603B
:10130C00214B00221A6033E0204B00221A60204B44
:10131C0000221A602CE01F4B00221A601E4B002288
:10132C001A6025E01D4B00221A601D4B00221A602A
:10133C001EE0124B00221A60124B00221A60134B53
:10134C0000221A60134B00221A60144B00221A6000
:10135C000B4B00221A600C4B00221A600C4B002223
:10136C001A600D4B00221A600D4B00221A6000BF50
:10137C0000BF0C37BD4680BC704700BF0801002081
:10138C001C0100200C010020200100201001002075
:10139C002401002014010020280100201801002045
:1013AC002C01002080B400AF1F4B1B68013B1E4A70
:1013BC0013601E4B1B68013B1C4A13601C4B1B68C3
:1013CC00013B1B4A13601B4B1B68013B194A136002
:1013DC00194B1B68013B184A1360134B1B68002BFD
:1013EC0002D1164B01221A60104B1B68002B02D144
:1013FC00134B01221A600E4B1B68002B02D1114BB0
:10140C0001221A600B4B1B68002B02D10E4B0122E0
:10141C001A60094B1B68002B02D10C4B01221A607D
:10142C0000BFBD4680BC7047080100200C010020A5
:10143C001001002014010020180100201C010020C4
:10144C002001002024010020280100202C01002074
:10145C00FFF7A4FE0B480C490C4A002302E0D458B9
:10146C00C4500433C4188C42F9D3094A094C0023E4
:10147C0001E013600432A242FBD301F0F9FAFFF74A
:10148C0001FD704700000020BC000020182B000854
:10149C00BC0000207C010020FEE7000080B500AFFE
:1014AC00084B1B68074A43F010031360032000F03D
:1014BC0023F90F2000F008F8FFF7E8FD0023184689
:1014CC0080BD00BF0020024080B582B000AF7860C4
:1014DC00124B1A68124B1B7819464FF47A73B3FBF4
:1014EC00F1F3B2FBF3F3184600F03BF90346002B83
:1014FC0001D001230EE07B680F2B0AD800227968FB
:10150C004FF0FF3000F003F9064A7B6813600023AC
:10151C0000E0012318460837BD4680BDB00000200E
:10152C00B8000020B400002080B400AF054B1B783D
:10153C001A46054B1B681344034A136000BFBD4693
:10154C0080BC7047B80000207801002080B400AF48
:10155C00024B1B681846BD4680BC704778010020C2
:10156C0080B485B000AF78607B6803F00703FB6044
:10157C000C4BDB68BB60BA684FF6FF031340BB60D3
:10158C00FB681A02BB68134343F0BF6343F4003398
:10159C00BB60044ABB68D36000BF1437BD4680BC37
:1015AC00704700BF00ED00E080B400AF044BDB6877
:1015BC001B0A03F007031846BD4680BC704700BFEA
:1015CC0000ED00E080B483B000AF0346FB7197F9E7
:1015DC000730002B0BDBFB7903F01F02064997F950
:1015EC0007305B09012000FA02F241F8232000BF0A
:1015FC000C37BD4680BC704700E100E080B483B07E
:10160C0000AF03463960FB7197F90730002B0ADBFA
:10161C003B68DAB20C4997F907301201D2B20B448D
:10162C0083F800230AE03B68DAB20849FB7903F03F
:10163C000F03043B1201D2B20B441A7600BF0C37D5
:10164C00BD4680BC704700BF00E100E000ED00E04B
:10165C0080B489B000AFF860B9607A60FB6803F0C1
:10166C000703FB61FB69C3F10703042B28BF0423A9
:10167C00BB61FB690433062B02D9FB69033B00E019
:10168C0000237B614FF0FF32BB6902FA03F3DA43AC
:10169C00BB681A407B699A404FF0FF317B6901FAB5
:1016AC0003F3D9437B680B40134318462437BD46DC
:1016BC0080BC704780B582B000AF78607B68013B1E
:1016CC00B3F1807F01D301230FE00A4A7B68013B11
:1016DC0053600F214FF0FF30FFF790FF054B0022B6
:1016EC009A60044B07221A60002318460837BD463F
:1016FC0080BD00BF10E000E080B582B000AF786024
:10170C007868FFF72DFF00BF0837BD4680BD80B558
:10171C0086B000AF0346B9607A60FB7300237B612F
:10172C00FFF742FF78617A68B9687869FFF790FF34
:10173C00024697F90F3011461846FFF75FFF00BFBE
:10174C001837BD4680BD80B582B000AF0346FB7133
:10175C0097F907301846FFF735FF00BF0837BD462D
:10176C0080BD80B582B000AF78607868FFF7A2FFCB
:10177C00034618460837BD4680BD000080B48BB0C8
:10178C0000AF7860396000237B6200233B6248E144
:10179C0001227B6A02FA03F3FB613B681B68FA695E
:1017AC001340BB61BA69FB699A4240F037813B68D0
:1017BC005B68A34A93425ED0A14A934275D8A14A72
:1017CC00934258D09F4A93426FD89F4A934252D02B
:1017DC009D4A934269D89D4A93424CD09B4A93426E
:1017EC0063D89B4A934246D0994A93425DD8122BB8
:1017FC002AD8122B59D801A252F823F083180008CA
:10180C005D1800086F180008B1180008B718000818
:10181C00B7180008B7180008B7180008B718000860
:10182C00B7180008B7180008B7180008B718000850
:10183C00B7180008B7180008B7180008B718000840
:10184C006518000879180008824A934213D02CE0DE
:10185C003B68DB683B6229E03B68DB6804333B6236
:10186C0024E03B68DB6808333B621FE03B68DB68C5
:10187C000C333B621AE03B689B68002B02D10423BB
:10188C003B6213E03B689B68012B05D108233B624C
:10189C007B68FA691A6109E008233B627B68FA6984
:1018AC005A6103E000233B6200E000BFBB69FF2BE1
:1018BC0001D87B6801E07B6804337B61BB69FF2B3B
:1018CC0002D87B6A9B0002E07B6A083B9B003B6171
:1018DC007B691A680F213B6901FA03F3DB431A4059
:1018EC00396A3B6901FA03F31A437B691A603B6856
:1018FC005B6803F08053002B00F09080564B9B6983
:10190C00554A43F001039361534B9B6903F0010368
:10191C00BB60BB68514A7B6A9B08023352F8233088
:10192C00FB607B6A03F003039B000F2202FA03F3B4
:10193C00DB43FA681340FB607B68494A93420DD045
:10194C007B68484A934207D07B68474A934201D14F
:10195C00022304E0032302E0012300E000237A6A5F
:10196C0002F0030292009340FA681343FB603B4978
:10197C007B6A9B080233FA6841F823203B685B685A
:10198C0003F48013002B06D0384B9A683749BB6997
:10199C0013438B6006E0354B9A68BB69DB433349D4
:1019AC0013408B603B685B6803F40013002B06D07C
:1019BC002E4BDA682D49BB691343CB6006E02B4BE9
:1019CC00DA68BB69DB4329491340CB603B685B6831
:1019DC0003F40033002B06D0244B5A682349BB690F
:1019EC0013434B6006E0214B5A68BB69DB431F492C
:1019FC0013404B603B685B6803F48033002B06D0CC
:101A0C001A4B1A681949BB6913430B6006E0174B54
:101A1C001A68BB69DB43154913400B607B6A0133C1
:101A2C007B623B681A687B6A22FA03F3002B7FF413
:101A3C00AFAE00BF00BF2C37BD4680BC704700BFA7
:101A4C0000003210000031100000221000002110A4
:101A5C0000001210000011100010024000000140A4
:101A6C0000080140000C014000100140000401403E
:101A7C0080B485B000AF78600B467B807B689A6839
:101A8C007B881340002B02D00123FB7301E0002361
:101A9C00FB73FB7B18461437BD4680BC704780B483
:101AAC0083B000AF78600B467B8013467B707B78ED
:101ABC00002B03D07A887B681A6103E07B881A04B8
:101ACC007B681A6100BF0C37BD4680BC704780B480
:101ADC0085B000AF78600B467B807B68DB68FB6071
:101AEC007A88FB6813401A04FB68D9437B880B4047
:101AFC001A437B681A6100BF1437BD4680BC70471F
:101B0C0080B586B000AF78607B68002B01D10123D3
:101B1C006CE27B681B6803F00103002B00F08780EC
:101B2C00924B5B6803F00C03042B0CD08F4B5B685F
:101B3C0003F00C03082B12D18C4B5B6803F480333D
:101B4C00B3F5803F0BD1894B1B6803F40033002B9A
:101B5C006CD07B685B68002B68D1012346E27B6804
:101B6C005B68B3F5803F06D1804B1B687F4A43F41A
:101B7C00803313602EE07B685B68002B0CD17B4BB1
:101B8C001B687A4A23F480331360784B1B68774ABE
:101B9C0023F4802313601DE07B685B68B3F5A02FF2
:101BAC000CD1724B1B68714A43F4802313606F4B4A
:101BBC001B686E4A43F4803313600BE06B4B1B685D
:101BCC006A4A23F480331360684B1B68674A23F41A
:101BDC00802313607B685B68002B13D0FFF7B6FC87
:101BEC00386108E0FFF7B2FC02463B69D31A642B5C
:101BFC0001D90323FAE15D4B1B6803F40033002B7E
:101C0C00F0D014E0FFF7A2FC386108E0FFF79EFC6F
:101C1C0002463B69D31A642B01D90323E6E1534BEB
:101C2C001B6803F40033002BF0D100E000BF7B688D
:101C3C001B6803F00203002B63D04C4B5B6803F072
:101C4C000C03002B0BD0494B5B6803F00C03082BE7
:101C5C001CD1464B5B6803F48033002B16D1434BED
:101C6C001B6803F00203002B05D07B681B69012B5A
:101C7C0001D00123BAE13D4B1B6823F0F8027B68CD
:101C8C005B69DB00394913430B603AE07B681B69E5
:101C9C00002B20D0364B01221A60FFF757FC38611D
:101CAC0008E0FFF753FC02463B69D31A022B01D91B
:101CBC0003239BE12D4B1B6803F00203002BF0D098
:101CCC002A4B1B6823F0F8027B685B69DB00274911
:101CDC0013430B6015E0264B00221A60FFF736FC0D
:101CEC00386108E0FFF732FC02463B69D31A022B3D
:101CFC0001D903237AE11D4B1B6803F00203002B6F
:101D0C00F0D17B681B6803F00803002B3AD07B688A
:101D1C009B69002B19D0174B01221A60FFF716FC98
:101D2C00386108E0FFF712FC02463B69D31A022B1C
:101D3C0001D903235AE10D4B5B6A03F00203002B1C
:101D4C00F0D0012000F09AFA1CE00A4B00221A6035
:101D5C00FFF7FCFB38610FE0FFF7F8FB02463B692D
:101D6C00D31A022B08D9032340E100BF0010024014
:101D7C0000004242800442429E4B5B6A03F0020325
:101D8C00002BE9D17B681B6803F00403002B00F0E7
:101D9C00A6800023FB75974BDB6903F08053002B67
:101DAC000DD1944BDB69934A43F08053D361914B33
:101DBC00DB6903F08053BB60BB680123FB758E4B62
:101DCC001B6803F48073002B18D18B4B1B688A4A59
:101DDC0043F480731360FFF7B9FB386108E0FFF739
:101DEC00B5FB02463B69D31A642B01D90323FDE0F2
:101DFC00814B1B6803F48073002BF0D07B68DB688D
:101E0C00012B06D17B4B1B6A7A4A43F00103136208
:101E1C002DE07B68DB68002B0CD1764B1B6A754A76
:101E2C0023F001031362734B1B6A724A23F0040301
:101E3C0013621CE07B68DB68052B0CD16D4B1B6AB5
:101E4C006C4A43F0040313626A4B1B6A694A43F001
:101E5C00010313620BE0674B1B6A664A23F0010314
:101E6C001362644B1B6A634A23F0040313627B689E
:101E7C00DB68002B15D0FFF769FB38610AE0FFF730
:101E8C0065FB02463B69D31A41F28832934201D971
:101E9C000323ABE0574B1B6A03F00203002BEED07D
:101EAC0014E0FFF753FB38610AE0FFF74FFB0246E3
:101EBC003B69D31A41F28832934201D9032395E04E
:101ECC004C4B1B6A03F00203002BEED1FB7D012B64
:101EDC0005D1484BDB69474A23F08053D3617B68BB
:101EEC00DB69002B00F08180424B5B6803F00C0334
:101EFC00082B61D07B68DB69022B46D13F4B00225B
:101F0C001A60FFF723FB386108E0FFF71FFB02465E
:101F1C003B69D31A022B01D9032367E0354B1B68AD
:101F2C0003F00073002BF0D17B681B6AB3F5803F84
:101F3C0008D1304B5B6823F400327B689B682D49D9
:101F4C0013434B602B4B5B6823F474127B68196A48
:101F5C007B685B6A0B43274913434B60274B012279
:101F6C001A60FFF7F3FA386108E0FFF7EFFA024660
:101F7C003B69D31A022B01D9032337E01D4B1B6895
:101F8C0003F00073002BF0D02FE01C4B00221A60E2
:101F9C00FFF7DCFA386108E0FFF7D8FA02463B6934
:101FAC00D31A022B01D9032320E0124B1B6803F038
:101FBC000073002BF0D118E07B68DB69012B01D199
:101FCC00012313E00B4B5B68FB60FB6803F480326E
:101FDC007B681B6A9A4206D1FB6803F470127B681B
:101FEC005B6A9A4201D0012300E00023184618379F
:101FFC00BD4680BD001002400070004060004242AF
:10200C0080B584B000AF786039607B68002B01D15B
:10201C000123D0E06A4B1B6803F007033A689A422D
:10202C0010D9674B1B6823F0070265493B681343C3
:10203C000B60634B1B6803F007033A689A4201D0AC
:10204C000123B8E07B681B6803F00203002B20D04F
:10205C007B681B6803F00403002B05D0594B5B68AD
:10206C00584A43F4E06353607B681B6803F0080331
:10207C00002B05D0534B5B68524A43F460535360BA
:10208C00504B5B6823F0F0027B689B684D4913430F
:10209C004B607B681B6803F00103002B40D07B680E
:1020AC005B68012B07D1474B1B6803F40033002BF3
:1020BC0015D101237FE07B685B68022B07D1414B74
:1020CC001B6803F00073002B09D1012373E03D4B17
:1020DC001B6803F00203002B01D101236BE0394B89
:1020EC005B6823F003027B685B68364913434B60E3
:1020FC00FFF72CFAF8600AE0FFF728FA0246FB68B3
:10210C00D31A41F28832934201D9032353E02D4B69
:10211C005B6803F00C027B685B689B009A42EBD116
:10212C00274B1B6803F007033A689A4210D2244BE2
:10213C001B6823F0070222493B6813430B60204BBA
:10214C001B6803F007033A689A4201D0012332E07E
:10215C007B681B6803F00403002B08D0194B5B68E9
:10216C0023F4E0627B68DB68164913434B607B68A1
:10217C001B6803F00803002B09D0124B5B6823F497
:10218C0060527B681B69DB000E4913434B6000F007
:10219C0021F802460B4B5B681B0903F00F030A493D
:1021AC00CB5C22FA03F3094A1360094B1B681846EF
:1021BC00FFF78AF9002318461037BD4680BD00BFD3
:1021CC000020024000100240EC2A0008B000002061
:1021DC00B400002080B487B000AF0023FB60002364
:1021EC00BB6000237B6100237B6000233B611E4BA3
:1021FC005B68FB60FB6803F00C03042B02D0082B1C
:10220C0003D027E0194B3B6127E0FB689B0C03F0E4
:10221C000F03174AD35C7B60FB6803F48033002BFD
:10222C0010D0114B5B685B0C03F00103114AD35CBB
:10223C00BB607B680D4A02FB03F2BB68B2FBF3F395
:10224C007B6104E07B680C4A02FB03F37B617B69D6
:10225C003B6102E0054B3B6100BF3B6918461C37F4
:10226C00BD4680BC704700BF0010024000127A00CF
:10227C00FC2A00080C2B000800093D0080B485B036
:10228C0000AF78600A4B1B680A4AA2FB03235B0A67
:10229C007A6802FB03F3FB6000BFFB685A1EFA600E
:1022AC00002BF9D100BF00BF1437BD4680BC70476E
:1022BC00B0000020D34D621080B582B000AF7860C2
:1022CC007B68002B01D1012341E07B6893F83D3002
:1022DC00DBB2002B06D17B68002283F83C207868A7
:1022EC00FEF706FF7B68022283F83D207B681A68A4
:1022FC007B6804331946104600F056FA7B680122BD
:10230C0083F846207B68012283F83E207B680122FB
:10231C0083F83F207B68012283F840207B680122F0
:10232C0083F841207B68012283F842207B680122DC
:10233C0083F843207B68012283F844207B680122C8
:10234C0083F845207B68012283F83D200023184642
:10235C000837BD4680BD000080B485B000AF786002
:10236C007B6893F83D30DBB2012B01D0012335E0C3
:10237C007B68022283F83D207B681B68DA687B68E7
:10238C001B6842F00102DA607B681B68164A9342B4
:10239C0009D07B681B68B3F1804F04D07B681B6845
:1023AC00124A934211D17B681B689B6803F00703A8
:1023BC00FB60FB68062B10D07B681B681A687B6877
:1023CC001B6842F001021A6007E07B681B681A6800
:1023DC007B681B6842F001021A6000231846143710
:1023EC00BD4680BC704700BF002C0140000400407B
:1023FC0080B584B000AF78607B681B68DB68FB60DD
:10240C007B681B681B69BB60BB6803F00203002B75
:10241C0020D0FB6803F00203002B1BD07B681B68E9
:10242C006FF002021A617B6801221A777B681B68C5
:10243C009B6903F00303002B03D0786800F098F934
:10244C0005E0786800F08BF9786800F09AF97B6801
:10245C0000221A77BB6803F00403002B20D0FB6822
:10246C0003F00403002B1BD07B681B686FF0040285
:10247C001A617B6802221A777B681B689B6903F4DC
:10248C004073002B03D0786800F072F905E078688F
:10249C0000F065F9786800F074F97B6800221A770F
:1024AC00BB6803F00803002B20D0FB6803F0080383
:1024BC00002B1BD07B681B686FF008021A617B68CD
:1024CC0004221A777B681B68DB6903F00303002B7B
:1024DC0003D0786800F04CF905E0786800F03FF91B
:1024EC00786800F04EF97B6800221A77BB6803F01D
:1024FC001003002B20D0FB6803F01003002B1BD023
:10250C007B681B686FF010021A617B6808221A77CF
:10251C007B681B68DB6903F44073002B03D078687D
:10252C0000F026F905E0786800F019F9786800F0F9
:10253C0028F97B6800221A77BB6803F00103002B93
:10254C000CD0FB6803F00103002B07D07B681B68E1
:10255C006FF001021A617868FEF788FCBB6803F023
:10256C008003002B0CD0FB6803F08003002B07D0FA
:10257C007B681B686FF080021A61786800F06FFA54
:10258C00BB6803F04003002B0CD0FB6803F0400346
:10259C00002B07D07B681B686FF040021A617868CB
:1025AC0000F0F8F8BB6803F02003002B0CD0FB689C
:1025BC0003F02003002B07D07B681B686FF0200210
:1025CC001A61786800F042FA00BF1037BD4680BD32
:1025DC0080B584B000AF786039600023FB737B68F2
:1025EC0093F83C30012B01D10223B4E07B6801222B
:1025FC0083F83C207B68022283F83D207B681B68B3
:10260C009B68BB60BB6823F07703BB60BB6823F49B
:10261C007F43BB607B681B68BA689A603B681B6829
:10262C00B3F5005F3ED0B3F5005F00F28780B3F5E1
:10263C00805F00F08680B3F5805F7FD8702B1AD056
:10264C00702B7BD8602B50D0602B77D8502B3CD084
:10265C00502B73D8402B58D0402B6FD8302B64D0D4
:10266C00302B6BD8202B60D0202B67D8002B5CD064
:10267C00102B5AD062E07B6818683B6899683B68FD
:10268C005A683B68DB6800F06AF97B681B689B68DA
:10269C00BB60BB6843F07703BB607B681B68BA68A0
:1026AC009A604FE07B6818683B6899683B685A6889
:1026BC003B68DB6800F053F97B681B689A687B68A1
:1026CC001B6842F480429A603CE07B6818683B6867
:1026DC0059683B68DB681A4600F0CAF87B681B68CF
:1026EC005021184600F021F92CE07B6818683B68F3
:1026FC0059683B68DB681A4600F0E8F87B681B6891
:10270C006021184600F011F91CE07B6818683B68E2
:10271C0059683B68DB681A4600F0AAF87B681B68AE
:10272C004021184600F001F90CE07B681A683B6800
:10273C001B681946104600F0F8F803E00123FB7300
:10274C0000E000BF7B68012283F83D207B680022FB
:10275C0083F83C20FB7B18461037BD4680BD80B407
:10276C0083B000AF786000BF0C37BD4680BC7047AB
:10277C0080B483B000AF786000BF0C37BD4680BC1E
:10278C00704780B483B000AF786000BF0C37BD4693
:10279C0080BC704780B483B000AF786000BF0C374A
:1027AC00BD4680BC7047000080B485B000AF786037
:1027BC0039607B681B68FB607B682B4A934207D0AF
:1027CC007B68B3F1804F03D07B68284A934208D1D1
:1027DC00FB6823F07003FB603B685B68FA6813438B
:1027EC00FB607B68204A934207D07B68B3F1804F33
:1027FC0003D07B681D4A934208D1FB6823F44073D5
:10280C00FB603B68DB68FA681343FB60FB6823F0F2
:10281C0080023B685B691343FB607B68FA681A6053
:10282C003B689A687B68DA623B681A687B689A62D4
:10283C007B680D4A934203D13B681A697B681A6323
:10284C007B6801225A617B681B6903F00103002B32
:10285C0005D07B681B6923F001027B681A6100BFFD
:10286C001437BD4680BC7047002C0140000400406A
:10287C0080B487B000AFF860B9607A60FB681B6AFF
:10288C007B61FB681B6A23F00102FB681A62FB6820
:10289C009B693B613B6923F0F0033B617B681B0147
:1028AC003A6913433B617B6923F00A037B617A69C4
:1028BC00BB6813437B61FB683A699A61FB687A6970
:1028CC001A6200BF1C37BD4680BC704780B487B00D
:1028DC0000AFF860B9607A60FB681B6A7B61FB68CB
:1028EC001B6A23F01002FB681A62FB689B693B6150
:1028FC003B6923F470433B617B681B033A691343C8
:10290C003B617B6923F0A0037B61BB681B017A6987
:10291C0013437B61FB683A699A61FB687A691A62B6
:10292C0000BF1C37BD4680BC704780B485B000AF7B
:10293C00786039607B689B68FB60FB6823F07003F0
:10294C00FB603A68FB68134343F00703FB607B684A
:10295C00FA689A6000BF1437BD4680BC704780B4DB
:10296C0087B000AFF860B9607A603B60FB689B6829
:10297C007B617B6923F47F437B613B681A027B6834
:10298C001A43BB6813437A6913437B61FB687A690A
:10299C009A6000BF1C37BD4680BC704780B485B0C0
:1029AC0000AF786039607B6893F83C30012B01D123
:1029BC00022341E07B68012283F83C207B680222E1
:1029CC0083F83D207B681B685B68FB607B681B6839
:1029DC009B68BB60FB6823F07003FB603B681B6863
:1029EC00FA681343FB607B681B68FA685A607B6863
:1029FC001B68144A934209D07B681B68B3F1804F63
:102A0C0004D07B681B68104A93420CD1BB6823F03E
:102A1C008003BB603B685B68BA681343BB607B6830
:102A2C001B68BA689A607B68012283F83D207B683A
:102A3C00002283F83C20002318461437BD4680BC86
:102A4C00704700BF002C01400004004080B483B0EC
:102A5C0000AF786000BF0C37BD4680BC704780B4B7
:102A6C0083B000AF786000BF0C37BD4680BC7047A8
:102A7C0070B500260C4D0D4C641BA410A64209D158
:102A8C0000F022F800260A4D0A4C641BA410A64242
:102A9C0005D170BD55F8043B98470136EEE755F863
:102AAC00043B98470136F2E7102B0008102B000866
:102ABC00102B0008142B000803460244934200D14B
:102ACC00704703F8011BF9E7F8B500BFF8BC08BC68
:102ADC009E467047F8B500BFF8BC08BC9E467047D0
:102AEC0000000000000000000102030406070809B2
:102AFC0002030405060708090A0B0C0D0E0F101033
:042B0C0001020000C2
:042B10003101000887
:042B14000D010008A7
:102B180000000000000001010000010101010000A7
:102B28000100000100000000000101000100000197
:102B38000100000001000001000000010000000089
:102B48000000000001010101000000000000000079
:102B58000000000100000101010101010100000065
:102B68006400000064000000640000000100000030
:102B78000100000001000000010000000100000049
:102B88000100000001000000010000000100000039
:102B98000100000001000000010000000100000029
:102BA80001000000FFFFFFFF050000000200000019
:102BB8000300000001000000010000000100000007
:0C2BC80000127A00100000000100000064
:040000050800145D7E
:00000001FF
