:020000040800F2
:1000000000280020310F0008A50D0008AB0D0008E6
:10001000B10D0008B70D0008BD0D0008000000007C
:10002000000000000000000000000000C30D0008F8
:10003000CF0D000800000000DB0D0008E70D0008F0
:10004000790F0008790F0008790F0008790F000870
:10005000790F0008790F0008790F0008790F000860
:10006000790F0008790F0008790F0008790F000850
:10007000790F0008790F0008790F0008790F000840
:10008000790F0008790F0008790F0008790F000830
:10009000790F0008790F0008790F0008790F000820
:1000A000790F0008790F0008790F0008790F000810
:1000B000F50D0008790F000800000000790F000816
:1000C000790F00080000000000000000790F000810
:1000D00000000000090E0008790F00080000000071
:1000E000790F0008790F0008790F00080000000060
:1000F0000000000000000000000000000000000000
:0C01000000000000000000005FF808F1A3
:10010C0010B5054C237833B9044B13B10448AFF345
:10011C0000800123237010BD780000200000000037
:10012C003040000808B5034B1BB103490348AFF33B
:10013C00008008BD000000007C000020304000085A
:10014C0080B500AF00F014FF00F02AF900F0E0F9E0
:10015C0000F0BAF900F092F900F0FEFB1A4801F039
:10016C006DFF01220021194800F022FC0122002120
:10017C00174800F01DFC32220021164800F018FC34
:10018C0064220021144800F013FC9622002113482D
:10019C0000F00EFCC8220021114800F009FCFA22E4
:1001AC000021104800F004FC00221E210E4800F033
:1001BC00FFFB002278210D4800F0FAFB0C4802F0FE
:1001CC00E1FF00F0DDFCFCE79802002021020008B2
:1001DC003D020008DD0200080503000821030008A9
:1001EC003D0300085903000875030008910300083B
:1001FC004840000880B582B000AF78607B681B680F
:10020C00B3F1804F01D100F023FC00BF0837BD468D
:10021C0080BD000080B500AF00F0FEFC034619461F
:10022C00024802F029FF00BF80BD00BF6C400008EF
:10023C0080B582B000AF01211F4801F059FA034686
:10024C00FB711E4B1B78FA799A4206D01B4AFB793C
:10025C0013701B4B00221A7029E0194B1B78022BD0
:10026C0006D8174B1B780133DAB2154B1A701EE007
:10027C00144B1B78FA799A4219D0124AFB791370F5
:10028C00104B1B78002B0BD120210B4801F05FFA8F
:10029C0000F0C2FC034619460B4802F0EDFE06E0E6
:1002AC0000F0BAFC03461946084802F0E5FE00BF10
:1002BC000837BD4680BD00BF00080140000000208B
:1002CC00940000200100002080400008A440000899
:1002DC0080B500AF2021064801F039FA00F09CFCF3
:1002EC0003461946034802F0C7FE00BF80BD00BF9D
:1002FC0000080140BC40000880B500AF00F08CFC49
:10030C0003461946024802F0B7FE00BF80BD00BF8D
:10031C00D040000880B500AF00F07EFC03461946C3
:10032C00024802F0A9FE00BF80BD00BFE4400008F7
:10033C0080B500AF00F070FC03461946024802F08D
:10034C009BFE00BF80BD00BFF840000880B500AF29
:10035C0000F062FC03461946024802F08DFE00BF15
:10036C0080BD00BF0C41000880B500AF00F054FC0C
:10037C0003461946024802F07FFE00BF80BD00BF55
:10038C002041000880B500AF00F046FC034619463A
:10039C00024802F071FE00BF80BD00BF344100086E
:1003AC0080B592B000AF07F11C032822002118463B
:1003BC0002F05AFE07F1080300221A605A609A6094
:1003CC00DA601A612B4B9B692A4A43F00103936153
:1003DC00284B9B6903F001037B607B68254BDB6931
:1003EC00244A43F08053D361224BDB6903F08053E2
:1003FC003B603B68204B5B687B647B6C23F0E06369
:10040C007B647B6C43F000737B641B4A7B6C536096
:10041C000223FB610123FB6210233B630223BB63BA
:10042C000023FB634FF460133B6407F11C03184675
:10043C0001F0A6F90346002B01D000F0A5F80F231C
:10044C00BB600223FB6000233B614FF480637B6144
:10045C000023BB6107F108030221184601F010FCD0
:10046C000346002B01D000F08FF800BF4837BD4683
:10047C0080BD00BF001002400000014080B500AFFD
:10048C00104B4FF080421A600E4B41F61F425A60DF
:10049C000C4B00229A600B4B6322DA60094B002252
:1004AC001A61084B00229A61064801F077FD002280
:1004BC0000211C2000F0B9FE1C2000F0D2FE00BF71
:1004CC0080BD00BF9802002080B500AF0E4B0F4AD4
:1004DC001A600D4B4FF4E1325A600B4B00229A60BC
:1004EC00094B0022DA60084B00221A61064B0C22E1
:1004FC005A61054B00229A61034B0022DA610248D3
:10050C0001F072FF00BF80BD500200200038014096
:10051C0080B586B000AF07F1080300221A605A605C
:10052C009A60DA60164B9B69154A43F00403936199
:10053C00134B9B6903F004037B607B680022202132
:10054C00104801F0ECF82023BB600123FB60022370
:10055C007B6107F1080319460A4800F04FFF01239D
:10056C00BB600023FB6001233B6107F108031946C4
:10057C00044800F043FF00BF1837BD4680BD00BFE4
:10058C00001002400008014080B500AF72B600BFF9
:10059C002021034801F0DBF8C82000F04BFDF7E701
:1005AC000008014080B584B000AF78607B68DBB296
:1005BC00FB7307F10F014FF0FF330122034801F0E9
:1005CC0063FF7B6818461037BD4680BD5002002083
:1005DC0080B586B000AFF860B9607A6000237B61AB
:1005EC0009E07B69BA6813441B781846FFF7DAFFF9
:1005FC007B6901337B617A697B689A42F1DB7B68AA
:10060C0018461837BD4680BD80B483B000AF034692
:10061C00FB71FB79591C074BA3FB01239A0813466A
:10062C00DB0013445B00CA1AD3B218460C37BD4624
:10063C0080BC7047398EE33880B400AF074B1B7811
:10064C00DAB2074B1B78DBB29A420CBF01230023B2
:10065C00DBB21846BD4680BC704700BF400200208C
:10066C004102002080B584B000AF0346FB800F4BE5
:10067C001B78DBB21846FFF7C7FF0346FB730C4B26
:10068C001B78DBB2FA7B9A420BD0084B1B78DBB29F
:10069C001946084AFB8822F81130044AFB7B137078
:1006AC0000E000BF1037BD4680BD00BF40020020F7
:1006BC00410200201C02002080B582B000AFFFF781
:1006CC00BBFF0346002B02D04FF0FF3313E00C4B63
:1006DC001B78DBB21A460B4B33F81230FB80084BFD
:1006EC001B78DBB21846FFF78FFF03461A46044B04
:1006FC001A70B7F9063018460837BD4680BD00BFE2
:10070C00410200201C02002080B582B000AF002303
:10071C00FB8062E0B7F90620354913465B001344B1
:10072C00DB000B4414331B78002B50D1B7F9062097
:10073C0013465B001344DB002D4A1344182200219E
:10074C00184602F091FCB7F90620294913465B00C4
:10075C001344DB000B44143301221A70B7F9062042
:10076C00234913465B001344DB000B4412334FF652
:10077C00FF711980B7F906101D4813465B0013442E
:10078C00DB0003441233B3F90000194A0B465B003B
:10079C000B44DB001344103302461A80154B1A68C5
:1007AC00531C14490B60B7F9061011480B465B003B
:1007BC000B44DB0003440C331A600E4B1B68002BFC
:1007CC0002D10C4B01221A60B7F906300BE0B7F9D5
:1007DC0006309BB201339BB2FB80B7F906300F2B6E
:1007EC0098DD4FF0FF3318460837BD4680BD00BF7B
:1007FC00980000200400002080B487B000AF0346AE
:10080C003960FB80B7F9062013465B001344DB000C
:10081C004F4A1344FB60FB683A689A604D4BB3F93E
:10082C000030002B0CDA4B4AFB881380FB684FF628
:10083C00FF721A82FB68B3F91020FB685A8283E0BE
:10084C00444B1B88FB824FF6FF73BB823B683B61BA
:10085C0019E0B7F916203E4913465B001344DB0040
:10086C000B4408331B683A69D31A3B61FB8ABB8281
:10087C00B7F91620364913465B001344DB000B44D2
:10088C0010331B88FB82B7F91630002B0CDBB7F941
:10089C0016202F4913465B001344DB000B4408332E
:1008AC001B683A699A42D4D8FB683A699A60FB682B
:1008BC00BA8A5A82FB68FA8A1A82B7F91630002B68
:1008CC002FDBB7F91620224913465B001344DB00DB
:1008DC000B441233FA881A80B7F916201C491346B8
:1008EC005B001344DB000B4408331B683A699A42E3
:1008FC000CD8B7F91620164913465B001344DB00DD
:10090C000B4408331A683B69D21A00E00022B7F98D
:10091C0016100F480B465B000B44DB0003440833F6
:10092C001A60B7F91430002B0BDBB7F91420084907
:10093C0013465B001344DB000B441033FA881A8017
:10094C0002E0044AFB8813801C37BD4680BC70470C
:10095C00980000200200002080B500AF72B600BFE6
:10096C004FF4C07200210C4802F07EFB0B4B4FF68B
:10097C00FF721A800A4B01221A600021094B0A46A9
:10098C001A70094B0A461A70084B00221A6062B69C
:10099C0000BF00BF80BD00BF9800002002000020F7
:1009AC000400002041020020400200201802002018
:1009BC0080B586B000AFF860B9607A60FB68002B38
:1009CC0001D100233DE0FFF79FFE0346FB82B7F900
:1009DC001630002B01DA002333E0B7F916201B493F
:1009EC0013465B001344DB000B44FA681A60B7F93A
:1009FC001620164913465B001344DB000B440433EA
:100A0C007A681A60B7F91620104913465B00134434
:100A1C00DB000B44153300221A7072B600BFB7F915
:100A2C001630B9681846FFF7E7FE62B600BFB7F993
:100A3C001620064913465B001344DB000B440C33B1
:100A4C001B6818461837BD4680BD00BF98000020B3
:100A5C0080B582B000AF474B1B680133454A136029
:100A6C00454BB3F90030002B7FDB434BB3F900301F
:100A7C001946424A0B465B000B44DB001344083317
:100A8C001B68002B5DD03C4BB3F900301A463B4938
:100A9C0013465B001344DB000B4408331B68591EE0
:100AAC00364813465B001344DB00034408331960DB
:100ABC0047E0314B1B88FB80B7F906202F491346C2
:100ACC005B001344DB000B441033B3F900202A4BBA
:100ADC001A80294BB3F90030002B0DDB264BB3F9F0
:100AEC0000301946254A0B465B000B44DB001344CF
:100AFC0012334FF6FF721A80B7F906201F491346BE
:100B0C005B001344DB000B4412334FF6FF7119806A
:100B1C00B7F90610194813465B001344DB00034475
:100B2C001233B3F90000154A0B465B000B44DB0093
:100B3C001344103302461A80B7F906301846FFF7F3
:100B4C0091FD0D4BB3F90030002B0FDB0A4BB3F9C1
:100B5C0000301946094A0B465B000B44DB0013447A
:100B6C0008331B68002BA4D000E000BF0837BD463B
:100B7C0080BD00BF18020020020000209800002059
:100B8C0080B582B000AFFFF797FD0346FB80B7F945
:100B9C000630002B38DBB7F9062013465B001344F4
:100BAC00DB001C4A13443B603B681B7D002B07D0C9
:100BBC003B685B7D002B03D13B681B68002B03D18A
:100BCC003B6800221A751EE03B681B6898473B681F
:100BDC005B68002B14D03B681B7D002B10D03B684E
:100BEC005B7D002B0CD172B600BF3B685A68B7F91D
:100BFC00063011461846FFF7FFFD62B600BF02E053
:100C0C003B6800221A75BEE700BF00BF0837BD461F
:100C1C0080BD00BF9800002080B483B000AF72B6D6
:100C2C0000BF074B1B687B6062B600BF7A68134637
:100C3C009B0013445B0018460C37BD4680BC7047C4
:100C4C001802002080B485B000AF154B9B69144A84
:100C5C0043F001039361124B9B6903F00103BB60EA
:100C6C00BB680F4BDB690E4A43F08053D3610C4BCE
:100C7C00DB6903F080537B607B680A4B5B68FB602D
:100C8C00FB6823F0E063FB60FB6843F00073FB60E0
:100C9C00044AFB68536000BF1437BD4680BC7047E4
:100CAC00001002400000014080B584B000AF7860B5
:100CBC007B681B68B3F1804F13D10C4BDB690B4A7B
:100CCC0043F00103D361094BDB6903F00103FB60C3
:100CDC00FB68002200211C2000F0A7FA1C2000F069
:100CEC00C0FA00BF1037BD4680BD00BF00100240E7
:100CFC0080B588B000AF786007F1100300221A604D
:100D0C005A609A60DA607B681B68204A934239D13A
:100D1C001F4B9B691E4A43F4804393611C4B9B6998
:100D2C0003F48043FB60FB68194B9B69184A43F042
:100D3C0004039361164B9B6903F00403BB60BB680F
:100D4C004FF400733B6102237B610323FB6107F1CA
:100D5C00100319460F4800F051FB4FF480633B61C0
:100D6C0000237B610023BB6107F11003194609487E
:100D7C0000F044FB00220021252000F056FA25202B
:100D8C0000F06FFA00BF2037BD4680BD003801402F
:100D9C00001002400008014080B400AFFEE780B4B0
:100DAC0000AFFEE780B400AFFEE780B400AFFEE713
:100DBC0080B400AFFEE780B400AF00BFBD4680BC7E
:100DCC00704780B400AF00BFBD4680BC704780B494
:100DDC0000AF00BFBD4680BC704780B500AF00F0CF
:100DEC000DF900BF80BD000080B500AF024801F0D6
:100DFC0071F900BF80BD00BF9802002080B500AF24
:100E0C00024801F0CDFB00BF80BD00BF50020020A6
:100E1C0080B586B000AFF860B9607A6000237B6162
:100E2C000AE0AFF300800146BB685A1CBA60CAB234
:100E3C001A707B6901337B617A697B689A42F0DBBB
:100E4C007B6818461837BD4680BD80B483B000AFB0
:100E5C0078604FF0FF3318460C37BD4680BC7047A6
:100E6C0080B483B000AF786039603B684FF40052B7
:100E7C005A60002318460C37BD4680BC704780B4BE
:100E8C0083B000AF7860012318460C37BD4680BC98
:100E9C00704780B485B000AFF860B9607A60002309
:100EAC0018461437BD4680BC7047000080B586B02C
:100EBC0000AF7860144A154BD31A7B617B693B6198
:100ECC00134B1B68002B02D1114B124A1A60104BAA
:100EDC001A687B6813443A699A4207D202F09AF86E
:100EEC0003460C221A604FF0FF3309E0084B1B68D5
:100EFC00FB60074B1A687B681344054A1360FB6858
:100F0C0018461837BD4680BD00280020000400009C
:100F1C0044020020F802002080B400AF00BFBD46A0
:100F2C0080BC7047FFF7F8FF0B480C490C4A0023B4
:100F3C0002E0D458C4500433C4188C42F9D3094A83
:100F4C00094C002301E013600432A242FBD302F0EF
:100F5C0067F8FFF7F5F870470000002078000020D4
:100F6C001442000878000020F4020020FEE7000084
:100F7C0080B500AF084B1B68074A43F010031360A1
:100F8C00032000F047F90F2000F008F8FFF75AFE95
:100F9C000023184680BD00BF0020024080B582B0FF
:100FAC0000AF7860124B1A68124B1B7819464FF43D
:100FBC007A73B3FBF1F3B2FBF3F3184600F05FF96D
:100FCC000346002B01D001230EE07B680F2B0AD8BF
:100FDC00002279684FF0FF3000F027F9064A7B6851
:100FEC001360002300E0012318460837BD4680BD7E
:100FFC0008000020100000200C00002080B400AF7E
:10100C00054B1B781A46054B1B681344034A1360A7
:10101C0000BFBD4680BC704710000020E0020020DD
:10102C0080B400AF024B1B681846BD4680BC7047AD
:10103C00E002002080B584B000AF7860FFF7F0FFCD
:10104C00B8607B68FB60FB68B3F1FF3F05D00A4BCF
:10105C001B781A46FB681344FB6000BFFFF7E0FFE8
:10106C000246BB68D31AFA689A42F7D800BF00BF91
:10107C001037BD4680BD00BF1000002080B485B085
:10108C0000AF78607B6803F00703FB600C4BDB68F8
:10109C00BB60BA684FF6FF031340BB60FB681A02D3
:1010AC00BB68134343F0BF6343F40033BB60044A93
:1010BC00BB68D36000BF1437BD4680BC704700BF0F
:1010CC0000ED00E080B400AF044BDB681B0A03F0BA
:1010DC0007031846BD4680BC704700BF00ED00E01A
:1010EC0080B483B000AF0346FB7197F90730002B37
:1010FC000BDBFB7903F01F02064997F907305B09FC
:10110C00012000FA02F241F8232000BF0C37BD4643
:10111C0080BC704700E100E080B483B000AF0346B0
:10112C003960FB7197F90730002B0ADB3B68DAB2A8
:10113C000C4997F907301201D2B20B4483F8002303
:10114C000AE03B68DAB20849FB7903F00F03043B71
:10115C001201D2B20B441A7600BF0C37BD4680BCCC
:10116C00704700BF00E100E000ED00E080B489B002
:10117C0000AFF860B9607A60FB6803F00703FB61AD
:10118C00FB69C3F10703042B28BF0423BB61FB6974
:10119C000433062B02D9FB69033B00E000237B617F
:1011AC004FF0FF32BB6902FA03F3DA43BB681A4013
:1011BC007B699A404FF0FF317B6901FA03F3D94305
:1011CC007B680B40134318462437BD4680BC7047E0
:1011DC0080B582B000AF78607B68013BB3F1807F53
:1011EC0001D301230FE00A4A7B68013B53600F21B6
:1011FC004FF0FF30FFF790FF054B00229A60044B35
:10120C0007221A60002318460837BD4680BD00BF70
:10121C0010E000E080B582B000AF78607868FFF72E
:10122C002DFF00BF0837BD4680BD80B586B000AF2E
:10123C000346B9607A60FB7300237B61FFF742FFC2
:10124C0078617A68B9687869FFF790FF024697F978
:10125C000F3011461846FFF75FFF00BF1837BD4629
:10126C0080BD80B582B000AF0346FB7197F90730A3
:10127C001846FFF735FF00BF0837BD4680BD80B567
:10128C0082B000AF78607868FFF7A2FF034618467B
:10129C000837BD4680BD80B485B000AF78600023B0
:1012AC00FB737B6893F82130DBB2022B08D07B6890
:1012BC0004229A637B68002283F82020012320E01B
:1012CC007B681B681A687B681B6822F00E021A6028
:1012DC007B681B681A687B681B6822F001021A6025
:1012EC007B681A6C7B68DB6B012101FA02F25A6095
:1012FC007B68012283F821207B68002283F8202060
:10130C00FB7B18461437BD4680BC704780B584B053
:10131C0000AF78600023FB737B6893F82130DBB25D
:10132C00022B05D07B6804229A630123FB7351E0E6
:10133C007B681B681A687B681B6822F00E021A60B7
:10134C007B681B681A687B681B6822F001021A60B4
:10135C007B681B68224A934229D07B681B68214A10
:10136C00934222D07B681B681F4A93421AD07B6839
:10137C001B681E4A934212D07B681B681C4A93421E
:10138C000AD07B681B681B4A934202D14FF480132E
:10139C000EE04FF080730BE04FF4803308E04FF415
:1013AC00805305E04FF4807302E0102300E001232A
:1013BC00114A53607B68012283F821207B6800224C
:1013CC0083F820207B685B6B002B03D07B685B6B06
:1013DC0078689847FB7B18461037BD4680BD00BF28
:1013EC00080002401C000240300002404400024051
:1013FC00580002406C0002400000024080B48BB0E8
:10140C0000AF7860396000237B6200233B6248E1C7
:10141C0001227B6A02FA03F3FB613B681B68FA69E1
:10142C001340BB61BA69FB699A4240F037813B6853
:10143C005B68A34A93425ED0A14A934275D8A14AF5
:10144C00934258D09F4A93426FD89F4A934252D0AE
:10145C009D4A934269D89D4A93424CD09B4A9342F1
:10146C0063D89B4A934246D0994A93425DD8122B3B
:10147C002AD8122B59D801A252F823F003150008D0
:10148C00DD140008EF1400083115000837150008AA
:10149C0037150008371500083715000837150008F0
:1014AC0037150008371500083715000837150008E0
:1014BC0037150008371500083715000837150008D0
:1014CC00E5140008F9140008824A934213D02CE06A
:1014DC003B68DB683B6229E03B68DB6804333B62BA
:1014EC0024E03B68DB6808333B621FE03B68DB6849
:1014FC000C333B621AE03B689B68002B02D104233F
:10150C003B6213E03B689B68012B05D108233B62CF
:10151C007B68FA691A6109E008233B627B68FA6907
:10152C005A6103E000233B6200E000BFBB69FF2B64
:10153C0001D87B6801E07B6804337B61BB69FF2BBE
:10154C0002D87B6A9B0002E07B6A083B9B003B61F4
:10155C007B691A680F213B6901FA03F3DB431A40DC
:10156C00396A3B6901FA03F31A437B691A603B68D9
:10157C005B6803F08053002B00F09080564B9B6906
:10158C00554A43F001039361534B9B6903F00103EC
:10159C00BB60BB68514A7B6A9B08023352F823300C
:1015AC00FB607B6A03F003039B000F2202FA03F338
:1015BC00DB43FA681340FB607B68494A93420DD0C9
:1015CC007B68484A934207D07B68474A934201D1D3
:1015DC00022304E0032302E0012300E000237A6AE3
:1015EC0002F0030292009340FA681343FB603B49FC
:1015FC007B6A9B080233FA6841F823203B685B68DE
:10160C0003F48013002B06D0384B9A683749BB691A
:10161C0013438B6006E0354B9A68BB69DB43334957
:10162C0013408B603B685B6803F40013002B06D0FF
:10163C002E4BDA682D49BB691343CB6006E02B4B6C
:10164C00DA68BB69DB4329491340CB603B685B68B4
:10165C0003F40033002B06D0244B5A682349BB6992
:10166C0013434B6006E0214B5A68BB69DB431F49AF
:10167C0013404B603B685B6803F48033002B06D04F
:10168C001A4B1A681949BB6913430B6006E0174BD8
:10169C001A68BB69DB43154913400B607B6A013345
:1016AC007B623B681A687B6A22FA03F3002B7FF497
:1016BC00AFAE00BF00BF2C37BD4680BC704700BF2B
:1016CC000000321000003110000022100000211028
:1016DC000000121000001110001002400000014028
:1016EC0000080140000C01400010014000040140C2
:1016FC0080B485B000AF78600B467B807B689A68BD
:10170C007B881340002B02D00123FB7301E00023E4
:10171C00FB73FB7B18461437BD4680BC704780B406
:10172C0083B000AF78600B467B8013467B707B7870
:10173C00002B03D07A887B681A6103E07B881A043B
:10174C007B681A6100BF0C37BD4680BC704780B403
:10175C0085B000AF78600B467B807B68DB68FB60F4
:10176C007A88FB6813401A04FB68D9437B880B40CA
:10177C001A437B681A6100BF1437BD4680BC7047A2
:10178C0080B586B000AF78607B68002B01D1012357
:10179C006CE27B681B6803F00103002B00F0878070
:1017AC00924B5B6803F00C03042B0CD08F4B5B68E3
:1017BC0003F00C03082B12D18C4B5B6803F48033C1
:1017CC00B3F5803F0BD1894B1B6803F40033002B1E
:1017DC006CD07B685B68002B68D1012346E27B6888
:1017EC005B68B3F5803F06D1804B1B687F4A43F49E
:1017FC00803313602EE07B685B68002B0CD17B4B35
:10180C001B687A4A23F480331360784B1B68774A41
:10181C0023F4802313601DE07B685B68B3F5A02F75
:10182C000CD1724B1B68714A43F4802313606F4BCD
:10183C001B686E4A43F4803313600BE06B4B1B68E0
:10184C006A4A23F480331360684B1B68674A23F49D
:10185C00802313607B685B68002B13D0FFF7E0FBE1
:10186C00386108E0FFF7DCFB02463B69D31A642BB6
:10187C0001D90323FAE15D4B1B6803F40033002B01
:10188C00F0D014E0FFF7CCFB386108E0FFF7C8FBA1
:10189C0002463B69D31A642B01D90323E6E1534B6F
:1018AC001B6803F40033002BF0D100E000BF7B6811
:1018BC001B6803F00203002B63D04C4B5B6803F0F6
:1018CC000C03002B0BD0494B5B6803F00C03082B6B
:1018DC001CD1464B5B6803F48033002B16D1434B71
:1018EC001B6803F00203002B05D07B681B69012BDE
:1018FC0001D00123BAE13D4B1B6823F0F8027B6851
:10190C005B69DB00394913430B603AE07B681B6968
:10191C00002B20D0364B01221A60FFF781FB386177
:10192C0008E0FFF77DFB02463B69D31A022B01D975
:10193C0003239BE12D4B1B6803F00203002BF0D01B
:10194C002A4B1B6823F0F8027B685B69DB00274994
:10195C0013430B6015E0264B00221A60FFF760FB67
:10196C00386108E0FFF75CFB02463B69D31A022B97
:10197C0001D903237AE11D4B1B6803F00203002BF2
:10198C00F0D17B681B6803F00803002B3AD07B680E
:10199C009B69002B19D0174B01221A60FFF740FBF3
:1019AC00386108E0FFF73CFB02463B69D31A022B77
:1019BC0001D903235AE10D4B5B6A03F00203002BA0
:1019CC00F0D0012000F0CCFA1CE00A4B00221A6087
:1019DC00FFF726FB38610FE0FFF722FB02463B695D
:1019EC00D31A022B08D9032340E100BF0010024098
:1019FC0000004242800442429E4B5B6A03F00203A9
:101A0C00002BE9D17B681B6803F00403002B00F06A
:101A1C00A6800023FB75974BDB6903F08053002BEA
:101A2C000DD1944BDB69934A43F08053D361914BB6
:101A3C00DB6903F08053BB60BB680123FB758E4BE5
:101A4C001B6803F48073002B18D18B4B1B688A4ADC
:101A5C0043F480731360FFF7E3FA386108E0FFF793
:101A6C00DFFA02463B69D31A642B01D90323FDE04C
:101A7C00814B1B6803F48073002BF0D07B68DB6810
:101A8C00012B06D17B4B1B6A7A4A43F0010313628C
:101A9C002DE07B68DB68002B0CD1764B1B6A754AFA
:101AAC0023F001031362734B1B6A724A23F0040385
:101ABC0013621CE07B68DB68052B0CD16D4B1B6A39
:101ACC006C4A43F0040313626A4B1B6A694A43F085
:101ADC00010313620BE0674B1B6A664A23F0010398
:101AEC001362644B1B6A634A23F0040313627B6822
:101AFC00DB68002B15D0FFF793FA38610AE0FFF78B
:101B0C008FFA02463B69D31A41F28832934201D9CB
:101B1C000323ABE0574B1B6A03F00203002BEED000
:101B2C0014E0FFF77DFA38610AE0FFF779FA024614
:101B3C003B69D31A41F28832934201D9032395E0D1
:101B4C004C4B1B6A03F00203002BEED1FB7D012BE7
:101B5C0005D1484BDB69474A23F08053D3617B683E
:101B6C00DB69002B00F08180424B5B6803F00C03B7
:101B7C00082B61D07B68DB69022B46D13F4B0022DE
:101B8C001A60FFF74DFA386108E0FFF749FA024690
:101B9C003B69D31A022B01D9032367E0354B1B6831
:101BAC0003F00073002BF0D17B681B6AB3F5803F08
:101BBC0008D1304B5B6823F400327B689B682D495D
:101BCC0013434B602B4B5B6823F474127B68196ACC
:101BDC007B685B6A0B43274913434B60274B0122FD
:101BEC001A60FFF71DFA386108E0FFF719FA024690
:101BFC003B69D31A022B01D9032337E01D4B1B6819
:101C0C0003F00073002BF0D02FE01C4B00221A6065
:101C1C00FFF706FA386108E0FFF702FA02463B6963
:101C2C00D31A022B01D9032320E0124B1B6803F0BB
:101C3C000073002BF0D118E07B68DB69012B01D11C
:101C4C00012313E00B4B5B68FB60FB6803F48032F1
:101C5C007B681B6A9A4206D1FB6803F470127B689E
:101C6C005B6A9A4201D0012300E000231846183722
:101C7C00BD4680BD00100240007000406000424232
:101C8C0080B584B000AF786039607B68002B01D1DF
:101C9C000123D0E06A4B1B6803F007033A689A42B1
:101CAC0010D9674B1B6823F0070265493B68134347
:101CBC000B60634B1B6803F007033A689A4201D030
:101CCC000123B8E07B681B6803F00203002B20D0D3
:101CDC007B681B6803F00403002B05D0594B5B6831
:101CEC00584A43F4E06353607B681B6803F00803B5
:101CFC00002B05D0534B5B68524A43F4605353603E
:101D0C00504B5B6823F0F0027B689B684D49134392
:101D1C004B607B681B6803F00103002B40D07B6891
:101D2C005B68012B07D1474B1B6803F40033002B76
:101D3C0015D101237FE07B685B68022B07D1414BF7
:101D4C001B6803F00073002B09D1012373E03D4B9A
:101D5C001B6803F00203002B01D101236BE0394B0C
:101D6C005B6823F003027B685B68364913434B6066
:101D7C00FFF756F9F8600AE0FFF752F90246FB68E4
:101D8C00D31A41F28832934201D9032353E02D4BED
:101D9C005B6803F00C027B685B689B009A42EBD19A
:101DAC00274B1B6803F007033A689A4210D2244B66
:101DBC001B6823F0070222493B6813430B60204B3E
:101DCC001B6803F007033A689A4201D0012332E002
:101DDC007B681B6803F00403002B08D0194B5B686D
:101DEC0023F4E0627B68DB68164913434B607B6825
:101DFC001B6803F00803002B09D0124B5B6823F41B
:101E0C0060527B681B69DB000E4913434B6000F08A
:101E1C0021F802460B4B5B681B0903F00F030A49C0
:101E2C00CB5C22FA03F3094A1360094B1B68184672
:101E3C00FFF7B4F8002318461037BD4680BD00BF2D
:101E4C000020024000100240484100080800002019
:101E5C000C00002080B487B000AF0023FB6000238F
:101E6C00BB6000237B6100237B6000233B611E4B26
:101E7C005B68FB60FB6803F00C03042B02D0082B9F
:101E8C0003D027E0194B3B6127E0FB689B0C03F068
:101E9C000F03174AD35C7B60FB6803F48033002B81
:101EAC0010D0114B5B685B0C03F00103114AD35C3F
:101EBC00BB607B680D4A02FB03F2BB68B2FBF3F319
:101ECC007B6104E07B680C4A02FB03F37B617B695A
:101EDC003B6102E0054B3B6100BF3B6918461C3778
:101EEC00BD4680BC704700BF0010024000127A0053
:101EFC00604100087041000800093D0080B400AF4B
:101F0C00024B1B681846BD4680BC70470800002079
:101F1C0080B500AFFFF7F2FF0246054B5B681B0A6A
:101F2C0003F007030349CB5C22FA03F3184680BD88
:101F3C00001002405841000880B500AFFFF7DEFFEB
:101F4C000246054B5B68DB0A03F007030349CB5CD5
:101F5C0022FA03F3184680BD0010024058410008D5
:101F6C0080B485B000AF78600A4B1B680A4AA2FBAC
:101F7C0003235B0A7A6802FB03F3FB6000BFFB6878
:101F8C005A1EFA60002BF9D100BF00BF1437BD46B2
:101F9C0080BC704708000020D34D621080B582B021
:101FAC0000AF78607B68002B01D1012341E07B6896
:101FBC0093F83D30DBB2002B06D17B68002283F80E
:101FCC003C207868FEF770FE7B68022283F83D2087
:101FDC007B681A687B6804331946104600F08EF94A
:101FEC007B68012283F846207B68012283F83E201F
:101FFC007B68012283F83F207B68012283F8402014
:10200C007B68012283F841207B68012283F84220FF
:10201C007B68012283F843207B68012283F84420EB
:10202C007B68012283F845207B68012283F83D20E0
:10203C00002318460837BD4680BD000080B485B02B
:10204C0000AF78607B6893F83D30DBB2012B01D098
:10205C00012335E07B68022283F83D207B681B68F6
:10206C00DA687B681B6842F00102DA607B681B68E7
:10207C00164A934209D07B681B68B3F1804F04D099
:10208C007B681B68124A934211D17B681B689B6862
:10209C0003F00703FB60FB68062B10D07B681B6802
:1020AC001A687B681B6842F001021A6007E07B68C3
:1020BC001B681A687B681B6842F001021A600023D7
:1020CC0018461437BD4680BC704700BF002C014039
:1020DC000004004080B584B000AF78607B681B685A
:1020EC00DB68FB607B681B681B69BB60BB6803F02B
:1020FC000203002B20D0FB6803F00203002B1BD043
:10210C007B681B686FF002021A617B6801221A77E8
:10211C007B681B689B6903F00303002B03D0786872
:10212C0000F0D1F805E0786800F0C4F8786800F0A9
:10213C00D3F87B6800221A77BB6803F00403002BEA
:10214C0020D0FB6803F00403002B1BD07B681B68BA
:10215C006FF004021A617B6802221A777B681B6895
:10216C009B6903F44073002B03D0786800F0ABF844
:10217C0005E0786800F09EF8786800F0ADF87B68B0
:10218C0000221A77BB6803F00803002B20D0FB68F1
:10219C0003F00803002B1BD07B681B686FF0080250
:1021AC001A617B6804221A777B681B68DB6903F071
:1021BC000303002B03D0786800F085F805E07868FD
:1021CC0000F078F8786800F087F87B6800221A77BE
:1021DC00BB6803F01003002B20D0FB6803F0100346
:1021EC00002B1BD07B681B686FF010021A617B6898
:1021FC0008221A777B681B68DB6903F44073002B99
:10220C0003D0786800F05FF805E0786800F052F8C9
:10221C00786800F061F87B6800221A77BB6803F0DD
:10222C000103002B0CD0FB6803F00103002B07D03B
:10223C007B681B686FF001021A617868FDF7DAFFA2
:10224C00BB6803F08003002B0CD0FB6803F0800309
:10225C00002B07D07B681B686FF080021A617868CE
:10226C0000F0B9F8BB6803F04003002B0CD0FB68FE
:10227C0003F04003002B07D07B681B686FF0400213
:10228C001A61786800F031F8BB6803F02003002B6A
:10229C000CD0FB6803F02003002B07D07B681B6875
:1022AC006FF020021A61786800F08CF800BF1037CC
:1022BC00BD4680BD80B483B000AF786000BF0C37E2
:1022CC00BD4680BC704780B483B000AF786000BF5F
:1022DC000C37BD4680BC704780B483B000AF7860CB
:1022EC0000BF0C37BD4680BC704780B483B000AFD4
:1022FC00786000BF0C37BD4680BC704780B485B099
:10230C0000AF786039607B681B68FB607B682B4A88
:10231C00934207D07B68B3F1804F03D07B68284A87
:10232C00934208D1FB6823F07003FB603B685B6849
:10233C00FA681343FB607B68204A934207D07B68A2
:10234C00B3F1804F03D07B681D4A934208D1FB68E0
:10235C0023F44073FB603B68DB68FA681343FB6053
:10236C00FB6823F080023B685B691343FB607B686E
:10237C00FA681A603B689A687B68DA623B681A688C
:10238C007B689A627B680D4A934203D13B681A6959
:10239C007B681A637B6801225A617B681B6903F0B6
:1023AC000103002B05D07B681B6923F001027B68BD
:1023BC001A6100BF1437BD4680BC7047002C014029
:1023CC000004004080B483B000AF786000BF0C37CD
:1023DC00BD4680BC704780B483B000AF786000BF4E
:1023EC000C37BD4680BC704780B582B000AF7860BA
:1023FC007B68002B01D1012342E07B6893F84130CC
:10240C00DBB2002B06D17B68002283F84020786871
:10241C00FEF76EFC7B68242283F841207B681B68E6
:10242C00DA687B681B6822F40052DA60786800F086
:10243C0063FD7B681B681A697B681B6822F49042F9
:10244C001A617B681B685A697B681B6822F02A0238
:10245C005A617B681B68DA687B681B6842F400521F
:10246C00DA607B6800225A647B68202283F8412062
:10247C007B68202283F842207B6800225A63002369
:10248C0018460837BD4680BD80B58AB002AFF860EB
:10249C00B9603B601346FB8000237B61FB6893F8BB
:1024AC004130DBB2202B75D1BB68002B02D0FB88EE
:1024BC00002B01D101236EE0FB6800225A64FB68FB
:1024CC00212283F84120FEF7ABFD7861FB68FA8886
:1024DC009A84FB68FA88DA84FB689B68B3F5805FA2
:1024EC0008D1FB681B69002B04D10023FB61BB687E
:1024FC00BB6103E0BB68FB610023BB612EE03B6862
:10250C0000937B6900228021F86800F001FB0346F0
:10251C00002B05D0FB68202283F8412003233AE0EE
:10252C00FB69002B0BD1BB691B881A46FB681B6827
:10253C00C2F308025A60BB690233BB6107E0FB6956
:10254C001A78FB681B685A60FB690133FB61FB68F6
:10255C00DB8C9BB2013B9AB2FB68DA84FB68DB8CA8
:10256C009BB2002BCBD13B6800937B6900224021AE
:10257C00F86800F0CDFA0346002B05D0FB6820224A
:10258C0083F84120032306E0FB68202283F84120D6
:10259C00002300E0022318462037BD4680BD000012
:1025AC0080B5BAB000AF78607B681B681B68C7F851
:1025BC00E4307B681B68DB68C7F8E0307B681B681D
:1025CC005B69C7F8DC300023C7F8D8300023C7F8A4
:1025DC00D430D7F8E43003F00F03C7F8D830D7F86D
:1025EC00D830002B0FD1D7F8E43003F02003002BA8
:1025FC0009D0D7F8E03003F02003002B03D0786823
:10260C0000F0BCFB5BE2D7F8D830002B00F0DE808A
:10261C00D7F8DC3003F00103002B06D1D7F8E030FB
:10262C0003F49073002B00F0D180D7F8E43003F062
:10263C000103002B0BD0D7F8E03003F48073002B90
:10264C0005D07B685B6C43F001027B685A64D7F859
:10265C00E43003F00403002B0BD0D7F8DC3003F08C
:10266C000103002B05D07B685B6C43F002027B6896
:10267C005A64D7F8E43003F00203002B0BD0D7F8E0
:10268C00DC3003F00103002B05D07B685B6C43F05E
:10269C0004027B685A64D7F8E43003F00803002B7B
:1026AC0011D0D7F8E03003F02003002B05D1D7F878
:1026BC00DC3003F00103002B05D07B685B6C43F02E
:1026CC0008027B685A647B685B6C002B00F0F2811B
:1026DC00D7F8E43003F02003002B08D0D7F8E03013
:1026EC0003F02003002B02D0786800F047FB7B68D6
:1026FC001B685B6903F04003002B14BF012300230C
:10270C00DBB2C7F8D4307B685B6C03F00803002B9A
:10271C0003D1D7F8D430002B4FD0786800F051FAA1
:10272C007B681B685B6903F04003002B41D07B681E
:10273C001B681433C7F89C30D7F89C3053E8003F23
:10274C00C7F89830D7F8983023F04003C7F8D0304A
:10275C007B681B681433D7F8D020C7F8A820C7F8BB
:10276C00A430D7F8A410D7F8A82041E80023C7F864
:10277C00A030D7F8A030002BD9D17B68DB6B002BB5
:10278C0013D07B68DB6B7E4A5A637B68DB6B184625
:10279C00FEF7BCFD0346002B16D07B68DB6B5B6B36
:1027AC007A68D26B104698470EE0786800F09CF976
:1027BC000AE0786800F098F906E0786800F094F97F
:1027CC007B6800225A6475E100BF73E17B681B6B68
:1027DC00012B40F04F81D7F8E43003F01003002BAD
:1027EC0000F04881D7F8E03003F01003002B00F024
:1027FC0041810023BB607B681B681B68BB607B68E6
:10280C001B685B68BB60BB687B681B685B6903F01B
:10281C004003002B00F0B6807B68DB6B1B685B68A9
:10282C00A7F8BE30B7F8BE30002B00F045817B68AE
:10283C009B8DB7F8BE209A4280F03E817B68B7F83A
:10284C00BE20DA857B68DB6B9B69202B00F08880CF
:10285C007B681B680C33C7F88830D7F8883053E88E
:10286C00003FC7F88430D7F8843023F48073C7F85E
:10287C00B8307B681B680C33D7F8B820C7F89420A5
:10288C00C7F89030D7F89010D7F8942041E800237F
:10289C00C7F88C30D7F88C30002BD9D17B681B68EB
:1028AC0014337B677B6F53E8003F3B673B6F23F030
:1028BC000103C7F8B4307B681B681433D7F8B42015
:1028CC00C7F88020FB67F96FD7F8802041E8002318
:1028DC00BB67BB6F002BE1D17B681B6814333B6675
:1028EC003B6E53E8003FFB65FB6D23F04003C7F8DC
:1028FC00B0307B681B681433D7F8B020FA66BB661F
:10290C00B96EFA6E41E800237B667B6E002BE3D137
:10291C007B68202283F842207B6800221A637B6844
:10292C001B680C33FB64FB6C53E8003FBB64BB6C53
:10293C0023F01003C7F8AC307B681B680C33D7F856
:10294C00AC20BA657B65796DBA6D41E800233B65B7
:10295C003B6D002BE3D17B68DB6B1846FEF79BFCD1
:10296C007B6802225A637B689A8D7B68DB8D9BB2F5
:10297C00D31A9BB21946786800F0BFF89CE000BFF0
:10298C00932C00087B689A8D7B68DB8D9BB2D31AE5
:10299C00A7F8CE307B68DB8D9BB2002B00F08E80CD
:1029AC00B7F8CE30002B00F089807B681B680C33A5
:1029BC00BB63BB6B53E8003F7B637B6B23F490736F
:1029CC00C7F8C8307B681B680C33D7F8C8207A640A
:1029DC003B64396C7A6C41E80023FB63FB6B002B86
:1029EC00E3D17B681B6814337B627B6A53E8003F3E
:1029FC003B623B6A23F00103C7F8C4307B681B6859
:102A0C001433D7F8C4203A63FB62F96A3A6B41E895
:102A1C000023BB62BB6A002BE3D17B68202283F8C6
:102A2C0042207B6800221A637B681B680C333B6175
:102A3C003B6953E8003FFB60FB6823F01003C7F8C9
:102A4C00C0307B681B680C33D7F8C020FA61BB61BF
:102A5C00B969FA6941E800237B617B69002BE3D1FA
:102A6C007B6802225A63B7F8CE301946786800F0BA
:102A7C0044F823E0D7F8E43003F08003002B09D0AE
:102A8C00D7F8E03003F08003002B03D0786800F017
:102A9C000EF914E0D7F8E43003F04003002B0ED00D
:102AAC00D7F8E03003F04003002B08D0786800F032
:102ABC004DF904E000BF02E000BF00E000BFE837C2
:102ACC00BD4680BD80B483B000AF786000BF0C37CA
:102ADC00BD4680BC704780B483B000AF786000BF47
:102AEC000C37BD4680BC704780B483B000AF7860B3
:102AFC0000BF0C37BD4680BC704780B483B000AFBC
:102B0C0078600B467B8000BF0C37BD4680BC70479D
:102B1C0080B586B000AFF860B9603B601346FB71BE
:102B2C003BE03B6AB3F1FF3F37D0FEF779FA024640
:102B3C003B68D31A3A6A9A4202D33B6A002B01D102
:102B4C0003233AE0FB681B68DB6803F00403002BEB
:102B5C0023D0BB68802B20D0BB68402B1DD0FB68DA
:102B6C001B681B6803F00803082B16D100237B613C
:102B7C00FB681B681B687B61FB681B685B687B617F
:102B8C007B69F86800F01DF8FB6808225A64FB6842
:102B9C00002283F8402001230FE0FB681B681A68B1
:102BAC00BB681340BA689A420CBF01230023DBB206
:102BBC001A46FB799A42B4D0002318461837BD4602
:102BCC0080BD80B495B000AF78607B681B680C3317
:102BDC007B637B6B53E8003F3B633B6B23F490734D
:102BEC00FB647B681B680C33FA6C3A64FB63F96B0F
:102BFC003A6C41E80023BB63BB6B002BE5D17B68CF
:102C0C001B6814333B623B6A53E8003FFB61FB6972
:102C1C0023F00103BB647B681B681433BA6CFA6243
:102C2C00BB62B96AFA6A41E800237B627B6A002BBB
:102C3C00E5D17B681B6B012B19D17B681B680C33AE
:102C4C00FB60FB6853E8003FBB60BB6823F01003DC
:102C5C007B647B681B680C337A6CBA617B61796925
:102C6C00BA6941E800233B613B69002BE5D17B68E5
:102C7C00202283F842207B6800221A6300BF54375D
:102C8C00BD4680BC704780B584B000AF78607B686F
:102C9C005B6AFB60FB680022DA85FB680022DA8441
:102CAC00F868FFF721FF00BF1037BD4680BD80B428
:102CBC0085B000AF78607B6893F84130DBB2212B94
:102CCC003ED17B689B68B3F5805F14D17B681B6930
:102CDC00002B10D17B681B6AFB60FB681B881A46B3
:102CEC007B681B68C2F308025A607B681B6A9A1CDB
:102CFC007B681A6208E07B681B6A591C7A6811624F
:102D0C001A787B681B685A607B68DB8C9BB2013B32
:102D1C009BB27A681946D184002B0FD17B681B6853
:102D2C00DA687B681B6822F08002DA607B681B68BB
:102D3C00DA687B681B6842F04002DA60002300E02E
:102D4C00022318461437BD4680BC704780B582B04C
:102D5C0000AF78607B681B68DA687B681B6822F0C0
:102D6C004002DA607B68202283F841207868FFF704
:102D7C00A9FE002318460837BD4680BD80B58CB02F
:102D8C0000AF78607B6893F84230DBB2222B40F0C6
:102D9C00AE807B689B68B3F5805F17D17B681B693D
:102DAC00002B13D10023FB627B689B6ABB627B68A0
:102DBC001B685B689BB2C3F308039AB2BB6A1A80A8
:102DCC007B689B6A9A1C7B689A6226E07B689B6A8C
:102DDC00FB620023BB627B689B68B3F5805F07D006
:102DEC007B689B68002B0AD17B681B69002B06D182
:102DFC007B681B685B68DAB2FB6A1A7008E07B6858
:102E0C001B685B68DBB203F07F03DAB2FB6A1A70F3
:102E1C007B689B6A5A1C7B689A627B68DB8D9BB2D1
:102E2C00013B9BB27A681946D185002B5DD17B683A
:102E3C001B68DA687B681B6822F02002DA607B680A
:102E4C001B68DA687B681B6822F48072DA607B6826
:102E5C001B685A697B681B6822F001025A617B6807
:102E6C00202283F842207B6800225A637B681B6B0C
:102E7C00012B35D17B6800221A637B681B680C33ED
:102E8C007B617B6953E8003F3B613B6923F0100396
:102E9C007B627B681B680C337A6A3A62FB61F96966
:102EAC003A6A41E80023BB61BB69002BE5D17B6822
:102EBC001B681B6803F01003102B0AD10023FB6066
:102ECC007B681B681B68FB607B681B685B68FB602E
:102EDC00FB687B689B8D19467868FFF70EFE02E055
:102EEC007868FFF7F8FD002302E0002300E00223DE
:102EFC0018463037BD4680BD80B584B000AF7860D1
:102F0C007B681B681B6923F440517B68DA687B681B
:102F1C001B680A431A617B689A687B681B691A43B1
:102F2C007B685B691343BB607B681B68DB6823F4BD
:102F3C00B05323F00C037A681268B9680B43D36062
:102F4C007B681B685B6923F440717B689A697B68BA
:102F5C001B680A435A617B681B682C4A934203D155
:102F6C00FEF7EAFFF86002E0FEF7D2FFF860FA68BD
:102F7C0013469B0013449A001A447B685B689B00C1
:102F8C00B2FBF3F3224AA2FB03235B091901FA6893
:102F9C0013469B0013449A001A447B685B689B00A1
:102FAC00B2FBF3F21A4BA3FB02035B09642000FB98
:102FBC0003F3D31A1B013233154AA2FB03235B091B
:102FCC0003F0F0031944FA6813469B0013449A006B
:102FDC001A447B685B689B00B2FBF3F20C4BA3FBBF
:102FEC0002035B09642000FB03F3D31A1B01323389
:102FFC00074AA2FB03235B0903F00F027B681B68E3
:10300C000A449A6000BF1037BD4680BD00380140AD
:10301C001F85EB51014B1868704700BF140000204E
:10302C0070B500260C4D0D4C641BA410A64209D1A2
:10303C0000F0F8FF00260A4D0A4C641BA410A642AF
:10304C0005D170BD55F8043B98470136EEE755F8AD
:10305C00043B98470136F2E70C4200080C4200088A
:10306C000C4200081042000803460244934200D16F
:10307C00704703F8011BF9E70FB40A4B13B51C6832
:10308C0024B1A36913B9204600F05EFA05AB2046C3
:10309C00049AA168019300F029FC02B0BDE810402D
:1030AC0004B070471400002070B50E46054618B1E8
:1030BC0083690BB900F048FAAB69AC6813B92846C0
:1030CC0000F042FA2C4B9C4220D16C68636EDB07FB
:1030DC0005D4A389980502D4A06D00F0D3FAA38976
:1030EC0019071DD52369DBB1013EA36816F8011F32
:1030FC00013BA36039BB002B38DA22460A21284653
:10310C0000F048F8013011D00A2511E01B4B9C420D
:10311C0001D1AC68DAE71A4B9C4208BFEC68D5E7E2
:10312C002146284600F088F80028DDD04FF0FF3506
:10313C00636EDA0705D4A3899B0502D4A06D00F059
:10314C00A2FA284670BD002B04DAA2699A4206DC6A
:10315C000A2904D023685A1C22601970C5E722463C
:10316C00284600F017F80130BFD1DFE70A252368A5
:10317C005A1C22601D70DBE798410008B84100081A
:10318C0078410008024B01461868FFF78DBF00BF5D
:10319C0014000020F8B50E461446054618B1836994
:1031AC000BB900F0D1F9214B9C422BD16C68A3696F
:1031BC00A360A3891A072FD523696BB323692068F1
:1031CC00F6B2C01A63693746834204DC21462846AE
:1031DC0000F026F930BBA3680130013BA3602368E3
:1031EC005A1C22601E706369834204D0A389DB07DA
:1031FC0006D50A2E04D12146284600F011F988B9CB
:10320C003846F8BD0A4B9C4201D1AC68CFE7094B5C
:10321C009C4208BFEC68CAE72146284600F00CF82F
:10322C000028CBD04FF0FF37EAE700BF98410008E9
:10323C00B841000878410008324B70B51D6806464D
:10324C000C4625B1AB6913B9284600F07DF92E4B1D
:10325C009C420FD16C68A389B4F90C2019072CD4AB
:10326C00DD0611D40923336042F040034FF0FF30E8
:10327C00A3813EE0254B9C4201D1AC68EBE7244B8B
:10328C009C4208BFEC68E6E7580712D5616B41B168
:10329C0004F14403994202D0304600F059FA00235D
:1032AC006363A38923F02403A38100236360236950
:1032BC002360A38943F00803A38123694BB9A38935
:1032CC0003F42073B3F5007F03D02146304600F0A1
:1032DC00FFF9A089B4F90C2010F001030AD00023E7
:1032EC00A36063695B42A361236943B910F080005A
:1032FC00BAD170BD810758BF6369A360F4E70020A1
:10330C00F7E700BF1400002098410008B8410008FE
:10331C00784100088A892DE9F041054610070C46D2
:10332C0058D44B68002B05DC0B6C002B02DC002006
:10333C00BDE8F081E66A002EF9D0002312F4805229
:10334C002F682B6032D0606DA3895A0705D563684E
:10335C00C01A636B0BB1236CC01A00230246E66AD9
:10336C002846216AB047431CA38906D129681D2928
:10337C002CD82A4ACA40D60728D500226260226976
:10338C00D904226004D5421C01D12B6803B96065B5
:10339C00616B2F600029CAD004F14403994202D01A
:1033AC00284600F0D5F900206063C1E7216A0123AB
:1033BC002846B047411CC7D12B68002BC4D01D2B0D
:1033CC0001D0162B01D12F60B1E7A38943F0400344
:1033DC00A381ADE70F69002FA9D0930718BF002375
:1033EC000E6808BF4B69A6EB07080F608B60B8F13D
:1033FC00000F9CDD43463A462846216AA66AB04730
:10340C00002806DCA3894FF0FF3043F04003A38172
:10341C008EE70744A8EB0008E9E700BF0100402055
:10342C0038B50B6905460C4613B90025284638BD3E
:10343C0018B183690BB900F087F8144B9C421BD16F
:10344C006C68B4F90C30002BEFD0626ED00704D44A
:10345C00990502D4A06D00F015F928462146FFF716
:10346C0059FF636E0546DA07E0D4A3899B05DDD4CA
:10347C00A06D00F008F9D9E7054B9C4201D1AC686E
:10348C00DFE7044B9C4208BFEC68DAE79841000880
:10349C00B841000878410008002310B50446C0E983
:1034AC000033C0E90433836081814366C281836148
:1034BC00194608225C30FFF7D7FD054B2462636286
:1034CC00044BA362044BE362044B236310BD00BFA7
:1034DC00A53E0008C73E0008FF3E0008233F000839
:1034EC00014900F0AFB800BF2D34000870B5682555
:1034FC004A1E55430E4605F1740100F075F9044659
:10350C0040B10021C0E900160C30A06005F1680242
:10351C00FFF7AAFD204670BD014800F0B3B800BF0C
:10352C00EC020020014800F0AEB800BFEC02002015
:10353C00014800F0A7B800BFE7020020014800F0E6
:10354C00A2B800BFE702002010B50446FFF7F0FF59
:10355C00A3691BB1BDE81040FFF7F0BFC4E91233FB
:10356C002365134B134A1B68A262A34208BF0123B5
:10357C00204608BFA36100F01FF86060204600F0F1
:10358C001BF8A060204600F017F800220421E06030
:10359C006068FFF781FF01220921A068FFF77CFF1B
:1035AC0002221221E068FFF777FF0123A361D1E724
:1035BC0074410008ED340008F8B50746FFF7ACFF7E
:1035CC001E4B1E68B36913B93046FFF7BDFF483672
:1035DC00D6E90134013B03D533680BB33668F7E702
:1035EC00B4F90C50D5B9164B04F15800E36065667C
:1035FC0000F047F8FFF796FF08222946C4E9015569
:10360C00C4E904552560A56104F15C00FFF72CFDAD
:10361C00C4E90D55C4E912552046F8BD6834D9E704
:10362C0004213846FFF762FF044630600028D5D1EC
:10363C00FFF778FF0C233B60EEE700BF74410008F6
:10364C000100FFFF2DE9F84306468846002700F1EC
:10365C004804D4E90195B9F1010905D52468002C79
:10366C00F7D13846BDE8F883AB89012B07D9B5F9FA
:10367C000E30013303D029463046C0470743683526
:10368C00E9E770477047704770B50E46B1F90E10F8
:10369C00144600291D4696B007DA00232B60B38927
:1036AC001A0610D44FF480630EE06A4600F05AFC00
:1036BC000028F2DB019A02F47042A2F500535A4240
:1036CC005A412A60EEE740230020236016B070BDFB
:1036DC008B8973B59D0706460C4607D504F1470345
:1036EC00236023610123636102B070BD6A4601ABA4
:1036FC00FFF7CAFF00990546304600F075F848B947
:10370C00B4F90C309A05EFD423F0030343F0020311
:10371C00A381E3E70D4BB362A389206043F08003E0
:10372C00A381009B20616361019B5BB13046B4F9BE
:10373C000E1000F029FC28B1A38923F0030343F0F9
:10374C000103A381A0890543A581CDE7ED340008D1
:10375C0038B50546002943D051F8043C0C1F002B0A
:10376C00B8BFE41800F040FC1E4A1368104633B989
:10377C00636014602846BDE8384000F03BBCA342AF
:10378C000AD921686218934201BF1A685B68521803
:10379C00226063600460EDE71A465B680BB1A342DC
:1037AC00FAD911685018A0420BD120680144501866
:1037BC0083421160DED118685B680144116053606C
:1037CC00D8E702D90C232B60D4E7206821188B4250
:1037DC0001BF19685B680918216063605460C9E710
:1037EC0038BD00BF48020020F8B5CD1C25F00305FC
:1037FC0008350C2D38BF0C25002D064601DBA942DF
:10380C0003D90C2333600020F8BD00F0EDFB2149F7
:10381C000A6814469CB9204F3B6823B921463046B0
:10382C0000F02AFB38602946304600F025FB431C8B
:10383C0023D10C233046336000F0DCFBE3E7236834
:10384C005B1B17D40B2B03D923601C44256004E0AD
:10385C006368A2420CBF0B605360304600F0CAFB99
:10386C0004F10B00231D20F00700C21ACCD01B1A48
:10387C00A350C9E722466468CCE7C41C24F00304B7
:10388C00A042E3D0211A304600F0F6FA0130DDD127
:10389C00CFE700BF480200204C020020936810B410
:1038AC00013B002B936007DA9469A34201DB0A29E0
:1038BC0002D110BCFFF76EBC1368581C1060197055
:1038CC00084610BC7047F8B506460F461446D51886
:1038DC00AC4201D1002007E03A46304614F8011BF7
:1038EC00FFF7DCFF431CF3D1F8BD00002DE9F04FCE
:1038FC000D461446984606469DB018B183690BB91F
:10390C00FFF722FE894B9D421BD175686B6ED90760
:10391C0005D4AB899A0502D4A86DFFF7B3FEAB8929
:10392C001B0701D52B69EBB929463046FFF784FC00
:10393C00C0B16B6EDC070ED54FF0FF301DB0BDE88B
:10394C00F08F7B4B9D4201D1B568DFE7794B9D42EF
:10395C0008BFF568DAE7AB899805EDD4A86DFFF7D9
:10396C0092FEE9E70023099320238DF829303023B8
:10397C004FF00109CDF80C80DFF8BC818DF82A30AE
:10398C0023469A4613F8012B0AB1252AF9D1BAEB32
:10399C00040B0BD05B46224629463046FFF793FFBB
:1039AC00013000F0AA80099A5A4409929AF8003022
:1039BC00002B00F0A28000234FF0FF32CDE905234D
:1039CC000AF1010A049307938DF853301A93544665
:1039DC00052214F8011B584800F0F8FA049AD8B9DB
:1039EC00D10644BF20238DF85330130744BF2B233B
:1039FC008DF853309AF800302A2B15D054460020FD
:103A0C004FF00A0C079A214611F8013B303B092B69
:103A1C004ED9B0B1079214E0A0EB080309FA03F3F6
:103A2C001343A2460493D2E7039B191D1B68039111
:103A3C00002BBBBF5B4242F0020207930793B8BF57
:103A4C00049223782E2B0CD163782A2B35D1039B2F
:103A5C0002341A1D1B680392002BB8BF4FF0FF33C2
:103A6C000593DFF8E4A003225046217800F0AEFA6B
:103A7C0040B14023A0EB0A0003FA00F0049B013490
:103A8C000343049314F8011B06222C488DF82810CC
:103A9C0000F09CFA00283FD0294B1BBB039B07333B
:103AAC0023F0070308330393099B3B44099367E70F
:103ABC000C4601200CFB0232A5E700234FF00A0C48
:103ACC00194601340593204610F8012B303A092A87
:103ADC0003D9002BC5D00591C3E7044601230CFB89
:103AEC000121F0E703AB00932A463046154B04A99D
:103AFC00AFF300800746781CD6D16B6ED90705D47E
:103B0C00AB899A0502D4A86DFFF7BDFDAB895B06A6
:103B1C003FF512AF099811E703AB00932A463046E4
:103B2C00084B04A900F082F8E4E700BF98410008B4
:103B3C00B841000878410008D8410008E24100086B
:103B4C0000000000D3380008DE4100082DE9F047E2
:103B5C00164699468A680B6907469342B8BF1346C6
:103B6C00336091F843200C46DDF820800AB1013314
:103B7C0033602368990642BF33680233336025688B
:103B8C0015F0060506D104F1190AE36832689B1A90
:103B9C00AB4228DC94F84320131E226818BF012383
:103BAC0092062DD44946384604F14302C0470130F1
:103BBC0020D02368E56803F00603042B18BF00250A
:103BCC0032684FF00006A36808BFAD1A226908BF1F
:103BDC0025EAE5759342C4BF9B1AED181A34B54219
:103BEC001AD1002008E00123524649463846C04706
:103BFC00013003D14FF0FF30BDE8F0870135C4E749
:103C0C003020E11881F843005A1C94F845102244E6
:103C1C00023382F84310C5E7012322464946384651
:103C2C00C0470130E6D00136D9E700002DE9FF4747
:103C3C000C46277E9146782F80469A460C9904F1C3
:103C4C00430207D8622F0AD8002F00F0D980582FD2
:103C5C0000F0A48004F1420684F842703AE0A7F127
:103C6C006303152BF6D801A050F823F0D13C0008C3
:103C7C00E53C0008613C0008613C0008613C000820
:103C8C00613C0008E53C0008613C0008613C000810
:103C9C00613C0008613C0008F33D0008153D00083C
:103CAC00D53D0008613C0008613C0008153E000849
:103CBC00613C0008153D0008613C0008613C0008AF
:103CCC00DD3D00080B6804F142061A1D1B680A60F2
:103CDC0084F842300123A4E0256808682E0600F120
:103CEC0004030AD505680B60002D03DA2D236D4201
:103CFC0084F843300A235E4819E015F0400F05683C
:103D0C000B6018BF2DB2EFE70B682568181D086013
:103D1C00280601D51D6802E06906FBD51D886F2FAA
:103D2C000CBF08230A235248002184F8431066680C
:103D3C00002EA8BF2168A660A4BF21F00401216059
:103D4C000DB9002E4DD01646B5FBF3F103FB115700
:103D5C00C75D06F8017D2F46BB420D46F4D9082BF2
:103D6C000BD12368DF0708D5236961689942DEBF50
:103D7C00302306F8013C06F1FF36921B22614B46BC
:103D8C0021464046CDF800A003AAFFF7DFFE013024
:103D9C004CD14FF0FF3004B0BDE8F087344884F8C4
:103DAC0045700E68236856F8045B1F060E6014D528
:103DBC00D90744BF43F0200323601DB9236823F0C7
:103DCC00200323601023AFE7236843F02003236014
:103DDC007823284884F84530E3E75E0648BFADB247
:103DEC00E6E71646BBE70B6826681D1D60690D608B
:103DFC0035061B6801D5186002E07106FBD51880EA
:103E0C00002316462361BAE70B681A1D0A601E6868
:103E1C0000213046626800F0D9F808B1801B606060
:103E2C0063682361002384F84330A8E7324649468F
:103E3C0040462369D0470130ABD023689B0713D48D
:103E4C00E068039B9842B8BF1846A4E701233246AA
:103E5C0049464046D04701309BD00135E368039971
:103E6C005B1AAB42F2DCEBE7002504F11906F5E72F
:103E7C00E9410008FA41000838B50023054D044615
:103E8C0008462B60FDF712F8431C02D12B6803B1D6
:103E9C00236038BDF002002010B50C46B1F90E10AD
:103EAC0000F0AEF80028ABBF636DA3891B1823F498
:103EBC008053ACBF6365A38110BD2DE9F0411F4653
:103ECC008B890546DB050C46164605D502230022D8
:103EDC00B1F90E1000F068F8A389324623F4805330
:103EEC00A38128463B46B4F90E10BDE8F04100F022
:103EFC0017B810B50C46B1F90E1000F055F8431C6C
:103F0C00A38915BF606523F4805343F48053A381C8
:103F1C0018BFA38110BDB1F90E1000F013B800004A
:103F2C0038B50446084611460022054D2A601A464B
:103F3C00FCF74EFB431C02D12B6803B1236038BD48
:103F4C00F002002038B50023054D044608462B60CE
:103F5C00FCF77BFF431C02D12B6803B1236038BDF7
:103F6C00F002002038B50023064D044608461146E1
:103F7C002B60FCF775FF431C02D12B6803B1236047
:103F8C0038BD00BFF002002038B50023054D0446B3
:103F9C0008462B60FCF773FF431C02D12B6803B15E
:103FAC00236038BDF002002038B50446084611469F
:103FBC000022054D2A601A46FCF76BFF431C02D108
:103FCC002B6803B1236038BDF0020020034610B506
:103FDC00C9B202449342184601D1002003E0047890
:103FEC0001338C42F6D110BD0148FFF74BBB00BF2B
:103FFC00E80200200148FFF746BB00BFE8020020A2
:10400C0038B50446084611460022054D2A601A466A
:10401C00FCF7FEFE431C02D12B6803B1236038BDB4
:10402C00F0020020F8B500BFF8BC08BC9E467047F3
:0C403C00F8B500BFF8BC08BC9E467047F9
:104048000D0A3D3D3D205363686564756C657220BB
:1040580064656D6F202846313033433629203D3D55
:104068003D0D00005B31306D735D2020743D256C83
:1040780075206D730D0A00005B42544E5D2070720E
:1040880065737365643B204C454420746F67676CA7
:1040980065643B20743D256C750D0A005B42544EE7
:1040A8005D2072656C65617365643B20743D256CA9
:1040B800750D0A005B3530306D735D2020743D2529
:1040C8006C750D0A000000005B313030306D735D97
:1040D80020743D256C750D0A000000005B313530F9
:1040E800306D735D20743D256C750D0A000000006D
:1040F8005B323030306D735D20743D256C750D0A70
:10410800000000005B323530306D735D20743D2552
:104118006C750D0A000000005B4F6E6553686F7484
:1041280020415D20743D256C750D0A005B4F6E655E
:1041380053686F7420425D20743D256C750D0A002C
:10414800000000000000000001020304060708093F
:104158000000000001020304020304050607080921
:104168000A0B0C0D0E0F10100102000018000020A1
:104178000000000000000000000000000000000037
:104188000000000000000000000000000000000027
:104198000000000000000000000000000000000017
:1041A8000000000000000000000000000000000007
:1041B80000000000000000000000000000000000F7
:1041C80000000000000000000000000000000000E7
:1041D800232D302B2000686C4C00656667454647E8
:1041E800003031323334353637383941424344456B
:1041F80046003031323334353637383961626364DA
:0442080065660000E7
:04420C003101000874
:044210000D01000894
:104214000101FFFF0100000000127A0010000000FD
:104224000100000018000020000000009841000870
:10423400B8410008784100080000000000000000B8
:10424400000000000000000000000000000000006A
:10425400000000000000000000000000000000005A
:10426400000000000000000000000000000000004A
:10427400000000000000000000000000000000003A
:08428400000000000000000032
:0400000508000F31AF
:00000001FF
